:100000000C940B010C9428010C94F0200C94E41F28
:100010000C9428010C941D200C94F22E0C94E326D1
:100020000C9428010C9428010C9428010C940B23A7
:100030000C9428010C9428010C94C0260C942801DF
:100040000C9428010C9428010C94642E0C94280123
:100050000C9428010C9428010C9428010C9428017C
:100060000C9428010C942801CB09D409DD09E60978
:10007000EF09F809010A0A0A130A1C0A250A2E0ABE
:10008000370A030C200C3D0C5A0C770C940CB10C65
:100090004F2056205D2064206B2072207920802024
:1000A000912098209F20A620AD20B420BB20C22004
:1000B000CF21DA21E021E621EC21F221FD210822E5
:1000C0001322192224222F223A2240224B22562286
:1000D0005F2466246A246E24722476247D2484247A
:1000E0009525A025A625AC25B225B825C325CE2566
:1000F00003286328B327E328FF2742281C28092860
:10010000B7279028D027EA2AF32AFC2A052B0E2BA2
:10011000172B202B6E616E00696E660000407A100E
:10012000F35A00A0724E18090010A5D4E80000E8A8
:100130007648170000E40B54020000CA9A3B000006
:1001400000E1F505000080969800000040420F0095
:100150000000A08601000000102700000000E80356
:10016000000000006400000000000A000000000021
:100170000100000000002C76D888DC674F0823DFE0
:10018000C1DFAE59E1B1B796E5E3E453C63AE651B3
:10019000997696E8E6C28426EB898C9B62ED407CDA
:1001A0006FFCEFBC9C9F40F2BAA56FA5F490055A76
:1001B0002AF75C936B6CF9676DC11BFCE0E40D479B
:1001C000FEF520E6B500D0ED902E030094357705BE
:1001D0000080841E080000204E0A000000C80C3376
:1001E0003333330F986E12831141EF8D2114893B05
:1001F000E65516CFFEE6DB18D1844B381BF77C1D85
:10020000901DA4BBE424203284725E228100C9F1D7
:1002100024ECA1E53D2711241FBECFEFD8E0DEBFBF
:10022000CDBF14E0A0E0B1E0EEE8FFE602C005902B
:100230000D92A039B107D9F725E0A0E9B4E001C0DB
:100240001D92A23FB207E1F70E940C270C94C5371C
:100250000C9400000F931F93CF93DF938DE190E0F8
:100260000E94AF378093E5048091E504843040F02C
:100270001092E5046091E5048DE190E00E94B737AB
:100280001092BA0510928F05C0E0D0E08E010F5E8B
:100290001F4FC8010E94AF37FE01ED52FA4F808315
:1002A0008081883140F0FE01ED52FA4F108260816A
:1002B000C8010E94B7372196CC30D10539F780E1CB
:1002C00090E00E94AF378093E3048FE090E00E94BB
:1002D000AF3780938D058091E304843120F08091C5
:1002E000E304873448F088E28093E3046091E304F8
:1002F00080E190E00E94B73780918D05843120F035
:1003000080918D05873448F088E280938D05609157
:100310008D058FE090E00E94B7378CE090E00E945E
:10032000AF37809320058091200580912005853688
:1003300048F082E380932005609120058CE090E0F6
:100340000E94B7378EE090E00E94AF37809321057E
:100350008DE090E00E94AF378093110580912105D8
:1003600080912105833340F0109221056091210591
:100370008EE090E00E94B7378091110580911105C1
:10038000833340F010921105609111058DE090E0EB
:100390000E94B7378BE090E00E94AF378093ED0466
:1003A0008AE090E00E94AF378093130589E090E0E7
:1003B0000E94AF378093120588E090E00E94AF372B
:1003C0008093930587E090E00E94AF3780933005DB
:1003D00086E090E00E94AF378093DD0485E090E0F6
:1003E0000E94AF3780938E058091ED04823010F02B
:1003F0001092ED0480911305823010F010921305D5
:1004000080911205823010F01092120580919305B0
:10041000823010F01092930580913005823010F0F8
:10042000109230058091DD04823010F01092DD04CE
:1004300080918E05823010F010928E0581E090E060
:100440000E94AF378093DE0480E090E00E94AF37D7
:100450008093EB0482E090E00E94AF378093C80560
:1004600084E090E00E94AF378093D0058091DE0455
:10047000813019F48093BA0511C08091DE04823076
:1004800020F08091DE04853648F082E38093DE041C
:100490006091DE0481E090E00E94B7378091EB0428
:1004A000813019F480938F0511C08091EB04823064
:1004B00020F08091EB04853648F082E38093EB04D2
:1004C0006091EB0480E090E00E94B7378091C8050E
:1004D000882321F08091C8058F3148F08FE0809308
:1004E000C8056091C80582E090E00E94B73780910E
:1004F000D005882321F08091D0058D3048F081E02F
:100500008093D0056091D00584E090E00E94B737D9
:1005100083E090E00E94AF378093C7058091C705C4
:10052000823019F48093EC0411C08091C7058430A7
:1005300019F48093EC040AC01092C7056091C705B6
:1005400083E090E00E94B7371092EC048091EC04B5
:10055000809322051092C9051092F5041092F404BC
:1005600010928B0510928A05EEEFF4E080E2808312
:1005700081839AE09283EAE2F5E080832AE3218393
:10058000828383839483EEEEF4E08083818328E684
:10059000228323E723839483E2E0F5E08083818351
:1005A00082839383E4E9F5E0808381839283EDEB9A
:1005B000F5E0808381839283EBE0F5E080838183A3
:1005C0009283E5E8F5E0808381839283EAECF5E0AD
:1005D0008083818382839383E3E2F5E08083818358
:1005E000828393831092100510920F051092DA0403
:1005F0001092D9041092C6051092C5051092E50517
:1006000010928C0510920105109217051092E404C7
:100610001092C40581E08093E8058093E70510926D
:10062000E9051092EB051092EA05DF91CF911F9139
:100630000F9108954F925F926F927F92AF92BF9207
:10064000CF92DF92EF92FF920F931F93CF93DF939E
:100650008091DE04811107C080EC9DE59093F50444
:100660008093F4048EC08091DE048436C8F18AE25F
:1006700091E09093F5048093F40483C08091DE04AC
:10068000A9014F5F5F4FC191D19190E0C817D90781
:1006900098F49A014C30510589F7E12CF12C00E0D7
:1006A00010E0C0E0D0E0A12CB12C23C0C5E0D0E028
:1006B00041E050E020E030E0220F331FF901E55423
:1006C000FC4FE080F180440F551FFA01E554FC4FC8
:1006D00000811181F901ED55FC4FA080B18009C066
:1006E0008091DE04863010F3E7EAF3E021E030E0A9
:1006F000C5CFD090DE04BE0180E090E00E941C30A7
:100700002B013C016D2D70E080E090E00E941C30D8
:100710009B01AC01C301B2010E94092F2B013C01D6
:10072000B701601B710B80E090E00E941C309B01C0
:10073000AC01C301B2010E94CE306B017C01CA1929
:10074000DB09BE0180E090E00E941C309B01AC01FF
:10075000C701B6010E947B2F6B017C01B80180E0CC
:1007600090E00E941C309B01AC01C701B6010E94C1
:100770000A2F0E943B310E94ED2F7093F504609385
:10078000F4048091F4049091F50420912105821BDA
:1007900091099093F5048093F404DF91CF911F9118
:1007A0000F91FF90EF90DF90CF90BF90AF907F9030
:1007B0006F905F904F9008954F925F926F927F92EB
:1007C000AF92BF92CF92DF92EF92FF920F931F935F
:1007D000CF93DF938091EB04811107C080EC9DE5FE
:1007E00090938B0580938A058EC08091EB048436AC
:1007F000C8F18AE291E090938B0580938A0583C0CB
:100800008091EB04A9014F5F5F4FC191D19190E0BE
:10081000C817D90798F49A014C30510589F7E12C93
:10082000F12C00E010E0C0E0D0E0A12CB12C23C0FE
:10083000C5E0D0E041E050E020E030E0220F331F7F
:10084000F901E554FC4FE080F180440F551FFA0197
:10085000E554FC4F00811181F901ED55FC4FA0805A
:10086000B18009C08091EB04863010F3E7EAF3E031
:1008700021E030E0C5CFD090EB04BE0180E090E0F5
:100880000E941C302B013C016D2D70E080E090E057
:100890000E941C309B01AC01C301B2010E94092FD0
:1008A0002B013C01B701601B710B80E090E00E94BE
:1008B0001C309B01AC01C301B2010E94CE306B0120
:1008C0007C01CA19DB09BE0180E090E00E941C3067
:1008D0009B01AC01C701B6010E947B2F6B017C011B
:1008E000B80180E090E00E941C309B01AC01C70180
:1008F000B6010E940A2F0E943B310E94ED2F709397
:100900008B0560938A0580918A0590918B052091D3
:100910001105821B910990938B0580938A05DF91C5
:10092000CF911F910F91FF90EF90DF90CF90BF90EC
:10093000AF907F906F905F904F90089521E1E9E133
:10094000F1E0DC0101900D922A95E1F7DC01989627
:1009500021E1E9E1F1E001900D922A95E1F7FC0136
:10096000EE5AFF4F10820895FC01EF5AFF4F20818D
:10097000211103C021E0208306C0213021F4FC01B5
:10098000EF5AFF4F1082FC01EE5AFF4F21E0208307
:100990000895AF92BF92CF92DF92EF92FF920F93A2
:1009A0001F93CF937C01FC01EE5AFF4F81E08083BF
:1009B000062F172F80E0570191E5A90EB11C6701A2
:1009C000E0E5CE0ED11C25C0CA3029F4C7010E9433
:1009D000B40480E01EC0883221F4C7010E94B40430
:1009E00080E0F5019081911109C0F6019081F70135
:1009F000E90FF11DE80FF11DC0830AC0913041F4E9
:100A0000F6019081F701E90FF11DE80FF11DC0A774
:100A10008F5FF801C1918F01C111D6CFCF911F9186
:100A20000F91FF90EF90DF90CF90BF90AF9008951F
:100A30008091E504813061F028F0823081F08330CC
:100A4000A9F0089588E38093E005109216050895B3
:100A500080E28093E00587E080931605089588E39F
:100A60008093E00587E080931605089580E28093E7
:100A7000E005109216050895682F70E0660F771F45
:100A800016161706ACF420E080E49BB198279BB9BA
:100A90003FEF47EE93E0315040409040E1F700C017
:100AA0000000A8952F5F422F50E0461757076CF3C0
:100AB0000895579A5F98239A2B983B9A4398569A91
:100AC0005E9884B1866084B985B1897F85B984B127
:100AD000806384B985B18F7C85B987B1876087B918
:100AE00088B1887F88B983E00E943C050895CF9340
:100AF000DF93EC01BC0181E395E00E94C904CE01C3
:100B00000E94D41FDF91CF910895853018F40E9480
:100B10006D1D0BC043982FEF83EC99E0215080406E
:100B20009040E1F700C00000439A81E08093900478
:100B300008950F931F93CF938C01C0E013C08C2FA7
:100B40000E9485052FEF80E792E021508040904081
:100B5000E1F700C00000C23021F481E080939004EE
:100B600029C0CF5F60E080E00E948A1F8F3F39F389
:100B7000C8010E94D41FC0E013C08C2F0E948505BD
:100B80002FEF80E792E0215080409040E1F700C0D5
:100B90000000C23021F481E0809390040BC0CF5F4D
:100BA00061E080E00E948A1F8F3F39F3C801889678
:100BB0000E94D41FCF911F910F910895CF93C82FFA
:100BC0000E941805C11104C081E395E00E949E04B3
:100BD000439A2FEF87EE93E0215080409040E1F759
:100BE00000C00000C0E024C08091E5048F5F8093C6
:100BF000E5048091E504843010F01092E5046091E2
:100C0000E5048DE190E00E94B7370E9418058C2F13
:100C10000E9485052FEF80E792E0215080409040B0
:100C2000E1F700C00000C23010F4CF5F01C0C0E0A7
:100C30000E94F91E8F3FC1F2C0E010C08C2F0E94AD
:100C400085052FEF80E792E0215080409040E1F74A
:100C500000C00000C23009F4BBCFCF5F82E00E9429
:100C6000EA1E8F3F59F380E00E94761FC0E010C05B
:100C70008C2F0E9485052FEF80E792E02150804065
:100C80009040E1F700C00000C23009F4A1CFCF5F6F
:100C900081E00E94EA1E8F3F59F32FEF80E792E038
:100CA000215080409040E1F700C00000CF910895AE
:100CB0001F93CF93DF93182FD62F809381056093D6
:100CC000820581E080938305C0E00FC08C2F0E94D5
:100CD00085052FEF80E792E0215080409040E1F7BA
:100CE00000C00000C23039F0CF5F6D2F812F0E940D
:100CF0008A1F8F3F59F3DF91CF911F91089560E0D4
:100D000080E00E94580685E191E00E947705A89551
:100D100061E080E00E94580685E191E00E9477053D
:100D2000A89560E084E10E94580685E191E00E9468
:100D30007705A89561E084E10E94580685E191E07D
:100D40000E947705A895089561E080E00E9458060A
:100D500085E191E00E947705A89560E084E10E941A
:100D6000580685E191E00E947705A89561E084E14D
:100D70000E94580685E191E00E947705A8950895A4
:100D800060E084E10E94580685E191E00E947705C9
:100D9000A89561E084E10E94580685E191E00E94F7
:100DA0007705A895089560E089E10E9458068AECCD
:100DB00095E00E947705A89560E083E20E945806BE
:100DC00083E295E00E947705A895089561E084E1AB
:100DD0000E94580682E095E00E947705A895089544
:100DE00061E088E10E94580684E995E00E94770559
:100DF000A89561E08BE10E9458068DEB95E00E947A
:100E00007705A89561E08EE10E94580688E195E09B
:100E10000E947705A895089561E081E20E94580636
:100E20008BE095E00E947705A89561E084E20E943E
:100E3000580685E895E00E947705A895089560E03A
:100E400087E00E9458068AE291E00E947705A89503
:100E500061E080E00E94580681E391E00E947705FE
:100E6000A89508950E941F078091EC048230F9F440
:100E700060E084E10E94580686E491E00E947705D4
:100E8000A8950E94D306A89561E084E10E945806C7
:100E90008BE591E00E947705A8950E94E606A8954B
:100EA0000E94F006A8950E940C07A89508958091CD
:100EB000EC04811113C060E084E10E94580680E7D1
:100EC00091E00E947705A89561E084E10E945806B0
:100ED00085E191E00E947705A89508958091EC0442
:100EE0008430A9F460E084E10E94580686E491E031
:100EF0000E947705A8950E94D306A89561E084E139
:100F00000E94580685E891E00E947705A89508950B
:100F10000E941F07A8952FEF87E893E1215080409A
:100F20009040E1F700C00000A89560E084E10E94D5
:100F300058068AE991E00E947705A8952FEF87E887
:100F400093E1215080409040E1F700C00000A89557
:100F500061E084E10E9458068DEA91E00E947705E5
:100F6000A8952FEF87E893E1215080409040E1F76A
:100F700000C00000A8952FEF87E893E12150804042
:100F80009040E1F700C00000A89508958091E20527
:100F90009DEC899F812D112486958695869590E0FC
:100FA0009093DA048093D9042091E2058091D904CA
:100FB0009091DA0430E0AC01440F551F880F991F5F
:100FC000880F991F880F991F840F951FA901481B2F
:100FD000590B5093C6054093C5058091D904909153
:100FE000DA04892B51F480910F0590911005892B1B
:100FF00021F480E38093940507C08091D9049091F7
:10100000DA04805D809394058091C5059091C605B2
:10101000805D809395058091E6049DEC899F812DEC
:10102000112486958695869590E09093DA048093B6
:10103000D9042091E6048091D9049091DA0430E03B
:10104000AC01440F551F880F991F880F991F880FF7
:10105000991F840F951FA901481B590B5093C60572
:101060004093C5058091D9049091DA04892B51F4FD
:1010700080910F0590911005892B21F480E38093D6
:10108000BD0507C08091D9049091DA04805D8093FA
:10109000BD058091C5059091C605805D8093BE0514
:1010A000809190059DEC899F812D112486958695D0
:1010B000869590E09093DA048093D904209190056E
:1010C0008091D9049091DA0430E0AC01440F551FAF
:1010D000880F991F880F991F880F991F840F951FDC
:1010E000A901481B590B5093C6054093C505809133
:1010F000D9049091DA04892B51F480910F059091D5
:101100001005892B21F480E38093180507C0809196
:10111000D9049091DA04805D809318058091C5050B
:101120009091C605805D8093190508958091DF0533
:101130009DEC899F812D112486958695869590E05A
:101140009093DA048093D9042091DF058091D9042B
:101150009091DA0430E0AC01440F551F880F991FBD
:10116000880F991F880F991F840F951FA901481B8D
:10117000590B5093C6054093C5058091D9049091B1
:10118000DA04892B51F480910F0590911005892B79
:1011900021F480E380930B0507C08091D9049091DE
:1011A000DA04805D80930B058091C5059091C6059A
:1011B000805D80930C058091E1059DEC899F812DD8
:1011C000112486958695869590E09093DA04809315
:1011D000D9042091E1058091D9049091DA0430E09E
:1011E000AC01440F551F880F991F880F991F880F56
:1011F000991F840F951FA901481B590B5093C605D1
:101200004093C5058091D9049091DA04892B51F45B
:1012100080910F0590911005892B21F480E3809334
:10122000850507C08091D9049091DA04805D809390
:1012300085058091C5059091C605805D80938605E2
:101240000895CF93DF93C091D005D0E06091D00591
:1012500084E090E00E94B7379E01ADECBCEC0E94A8
:101260004C35969587959695879596958795909305
:10127000DA048093D9048091D9049091DA049C0116
:10128000220F331F880F991F880F991F880F991FEE
:10129000820F931FC81BD90BD093C605C093C505F9
:1012A0008091D9049091DA04892B21F480E2809313
:1012B000FE0407C08091D9049091DA04805D809388
:1012C000FE048091C5059091C605805D8093FF0462
:1012D0005E9A60E08CE10E9458068EEF94E00E94D6
:1012E00077055E98DF91CF9108951F93CF93DF9399
:1012F000182F90E0EC01CD52DA4F68818F5E9F4F3E
:101300000E94B73788819DEC899F812D1124869595
:101310008695869590E09093DA048093D90428818D
:101320008091D9049091DA0430E0AC01440F551F4C
:10133000880F991F880F991F880F991F840F951F79
:10134000A901481B590B5093C6054093C5058091D0
:10135000D9049091DA04892B21F480E28093EE0481
:1013600007C08091D9049091DA04805D8093EE04E7
:101370008091C5059091C605805D8093EF045E9ACB
:10138000812F90E08D30910508F07AC0FC01EC5C73
:10139000FF4F0C94463560E084E00E9458068EEEC4
:1013A00094E00E94770574C061E084E00E945806D2
:1013B0008EEE94E00E9477056BC060E088E10E94A9
:1013C00058068EEE94E00E94770562C061E088E1E5
:1013D0000E9458068EEE94E00E94770559C060E0A6
:1013E0008EE00E9458068EEE94E00E94770550C071
:1013F00061E08EE00E9458068EEE94E00E94770530
:1014000047C060E082E20E9458068EEE94E00E949F
:1014100077053EC061E082E20E9458068EEE94E0BD
:101420000E94770535C060E084E00E9458068EEE89
:1014300094E00E9477052CC061E084E00E94580689
:101440008EEE94E00E94770523C060E088E10E9460
:1014500058068EEE94E00E9477051AC061E088E19C
:101460000E9458068EEE94E00E94770511C060E05D
:101470008EE00E9458068EEE94E00E94770508C028
:1014800060E082E20E9458068AEB91E00E947705B4
:101490005E98DF91CF911F910895609120058CE0B7
:1014A00090E00E94B737809120059DEC899F812DA7
:1014B000112486958695869590E09093DA04809322
:1014C000D904209120058091D9049091DA0430E06C
:1014D000AC01440F551F880F991F880F991F880F63
:1014E000991F840F951FA901481B590B5093C605DE
:1014F0004093C5058091D9049091DA04892B21F499
:1015000080E28093FE0407C08091D9049091DA04B0
:10151000805D8093FE048091C5059091C605805D35
:101520008093FF045E9A60E08CE10E9458068EEF83
:1015300094E00E9477055E980895882321F0813019
:1015400009F451C008956091E30480E190E00E94A5
:10155000B7378091E3049DEC899F812D11248695F6
:101560008695869590E09093DA048093D904209133
:10157000E3048091D9049091DA0430E0AC01440F87
:10158000551F880F991F880F991F880F991F840F67
:10159000951FA901481B590B5093C6054093C505DB
:1015A0008091D9049091DA04892B21F480E2809310
:1015B000FE0407C08091D9049091DA04805D809385
:1015C000FE048091C5059091C605805D8093FF045F
:1015D0005E9A60E08CE10E9458068EEF94E00E94D3
:1015E00077055E98089560918D058FE090E00E94E8
:1015F000B73780918D059DEC899F812D11248695AB
:101600008695869590E09093DA048093D904209192
:101610008D058091D9049091DA0430E0AC01440F3B
:10162000551F880F991F880F991F880F991F840FC6
:10163000951FA901481B590B5093C6054093C5053A
:101640008091D9049091DA04892B21F480E280936F
:10165000FE0407C08091D9049091DA04805D8093E4
:10166000FE048091C5059091C605805D8093FF04BE
:101670005E9A60E08CE10E9458068EEF94E00E9432
:1016800077055E980895882321F0813009F451C0D0
:101690000895609121058EE090E00E94B737809117
:1016A00021059DEC899F812D11248695869586952F
:1016B00090E09093DA048093D904209121058091E1
:1016C000D9049091DA0430E0AC01440F551F880F23
:1016D000991F880F991F880F991F840F951FA901C3
:1016E000481B590B5093C6054093C5058091D904FA
:1016F0009091DA04892B21F480E28093FE0407C0E4
:101700008091D9049091DA04805D8093FE048091E9
:10171000C5059091C605805D8093FF045E9A60E0E8
:101720008CE10E9458068EEF94E00E9477055E9847
:101730000895609111058DE090E00E94B737809187
:1017400011059DEC899F812D11248695869586959E
:1017500090E09093DA048093D90420911105809150
:10176000D9049091DA0430E0AC01440F551F880F82
:10177000991F880F991F880F991F840F951FA90122
:10178000481B590B5093C6054093C5058091D90459
:101790009091DA04892B21F480E28093FE0407C043
:1017A0008091D9049091DA04805D8093FE04809149
:1017B000C5059091C605805D8093FF045E9A60E048
:1017C0008CE10E9458068EEF94E00E9477055E98A7
:1017D0000895813039F4EEEFF4E083E5808389E405
:1017E00081830895EEEFF4E08EE480838FE48183BB
:1017F000089590E08730910508F0CFC0FC01EF5BC1
:10180000FF4F0C9446356091ED048BE090E00E9410
:10181000B7378091ED040E94E90B60E087E00E94F9
:10182000580687E291E00E9477055E9A60E087E0C3
:101830000E9458068EEF94E00E9477055E98089506
:10184000609113058AE090E00E94B73780911305FC
:101850000E94E90B61E087E00E94580687E291E070
:101860000E9477055E9A61E087E00E9458068EEF3D
:1018700094E00E9477055E9808956091120589E0D2
:1018800090E00E94B737809112050E94E90B60E05A
:101890008BE10E94580687E291E00E9477055E9AEC
:1018A00060E08BE10E9458068EEF94E00E9477057D
:1018B0005E9808956091930588E090E00E94B737A4
:1018C000809193050E94E90B61E08BE10E9458062C
:1018D00087E291E00E9477055E9A61E08BE10E94C9
:1018E00058068EEF94E00E9477055E980895609107
:1018F000300587E090E00E94B737809130050E9464
:10190000E90B60E082E10E94580687E291E00E94C4
:1019100077055E9A60E082E10E9458068EEF94E0BF
:101920000E9477055E9808956091DD0486E090E05E
:101930000E94B7378091DD040E94E90B61E082E1EB
:101940000E94580687E291E00E9477055E9A61E066
:1019500082E10E9458068EEF94E00E9477055E981F
:10196000089560918E0585E090E00E94B7378091E0
:101970008E050E94E90B60E086E20E94580687E22D
:1019800091E00E9477055E9A60E086E20E94580628
:101990008EEF94E00E9477055E9808956091C705E8
:1019A00083E090E00E94B7378091C7051F928F9324
:1019B0008EEB91E09F938F930E94E2362FEF89E6A2
:1019C00098E1215080409040E1F700C00000A895C8
:1019D0000F900F900F900F90089560E089E10E94A2
:1019E00058068FE191E00E9477055E9A60E089E1F8
:1019F0000E9458068091C705811107C084EC91E0D0
:101A00000E9477051092EC0445C08091C705813093
:101A100041F48DEC91E00E94770581E08093EC0425
:101A200039C08091C705823041F485ED91E00E9474
:101A3000770582E08093EC042DC08091C705833048
:101A400041F48DED91E00E94770583E08093EC04F2
:101A500021C08091C705843041F488EE91E00E9456
:101A6000770584E08093EC0415C08091C70585302C
:101A700039F482EF91E00E9477051092EC040AC0DD
:101A80008091C705863031F48BEF91E00E94770595
:101A90001092EC045E980895CF93DF93C091C8052F
:101AA000D0E06091C80582E090E00E94B7379E01C7
:101AB000ADECBCEC0E944C35969587959695879534
:101AC000969587959093DA048093D9048091D904F0
:101AD0009091DA049C01220F331F880F991F880F01
:101AE000991F880F991F820F931FC81BD90BD09382
:101AF000C605C093C5058091D9049091DA04892B5D
:101B000021F480E28093FE0407C08091D904909173
:101B1000DA04805D8093FE048091C5059091C6052E
:101B2000805D8093FF045E9A60E08BE10E9458061E
:101B30008EEF94E00E9477055E98DF91CF91089533
:101B4000AC01843B910530F083E380932A05445B2C
:101B5000510914C08837910530F082E380932A053B
:101B6000485751090BC0CC9730F081E380932A0588
:101B70004C53510903C080E380932A059A01ADECD0
:101B8000BCEC0E944C3596958795969587959695D1
:101B900087959093DA048093D9048091D904909129
:101BA000DA049C01220F331F880F991F880F991F99
:101BB000880F991F820F931F481B590B5093C6051E
:101BC0004093C5058091D9049091DA04892B21F4C2
:101BD00080E380932C0507C08091D9049091DA04AA
:101BE000805D80932C058091C5059091C605805D30
:101BF00080932D0561E08CE10E94580686E291E019
:101C00000E9477055E9A61E08CE10E9458068AE2A4
:101C100095E00E9477055E9808956091DE0481E06A
:101C200090E00E94B7372FEF83EC99E0215080407D
:101C30009040E1F700C00000A8958091DE041F925B
:101C40008F9384E092E09F938F930E94E2362FEF70
:101C50008DE292E2215080409040E1F700C0000008
:101C6000A8950F900F900F900F9008956091EB043E
:101C700080E090E00E94B7372FEF83EC99E021508D
:101C800080409040E1F700C00000A8958091EB04EF
:101C90001F928F938AE092E09F938F930E94E23687
:101CA0002FEF8DE292E2215080409040E1F700C09A
:101CB0000000A8950F900F900F900F900895CF936C
:101CC000E091DE04F0E04091EB0450E09F01369596
:101CD000279536952795ABE7B4E10E944C3596954C
:101CE00087959093100580930F0520910F053091F3
:101CF0001005C4E6C29FC001C39F900D11249F012F
:101D0000281B390BADECBCEC0E944C3596958795A1
:101D100096958795969587959093DA048093D90444
:101D200060910F05709110058091D9049091DA04AB
:101D3000C69F9001C79F300D1124E21BF30B9C013D
:101D4000220F331F880F991F880F991F880F991F23
:101D5000820F931FE81BF90BF093C605E093C505AE
:101D600080910F0590911005892B21F480E28093DA
:101D7000CA0507C080910F0590911005805D809382
:101D8000CA058091D9049091DA04892B51F480918D
:101D90000F0590911005892B21F480E28093CB05EB
:101DA00007C08091D9049091DA04805D8093CB05BF
:101DB0008091C5059091C605EAECF5E0805D8283CF
:101DC00085E283839A013695279536952795ABE76B
:101DD000B4E10E944C3596958795909310058093B9
:101DE0000F0520910F0530911005E4E6E29FC00138
:101DF000E39F900D11249A01281B390BADECBCEC2C
:101E00000E944C35969587959695879596958795DA
:101E10009093DA048093D90460910F0570911005B6
:101E20008091D9049091DA04E69F9001E79F300DEC
:101E30001124421B530B9C01220F331F880F991F43
:101E4000880F991F880F991F820F931F481B590BEA
:101E50005093C6054093C50580910F0590911005DC
:101E6000892B21F480E28093230507C080910F0520
:101E700090911005805D809323058091D904909105
:101E8000DA04892B51F480910F0590911005892B6C
:101E900021F480E28093240507C08091D9049091B9
:101EA000DA04805D809324058091C5059091C60574
:101EB000E3E2F5E0805D828385E28383CF9108953C
:101EC0001092E0041092DF044091DE048091BA0584
:101ED000882341F0EAECF5E08FE4818386E4828395
:101EE00083837DC050E09A013695279536952795D6
:101EF000ABE7B4E10E944C35969587959093100519
:101F000080930F0520910F0530911005E4E6E29FC4
:101F1000C001E39F900D11249A01281B390BADECF1
:101F2000BCEC0E944C35969587959695879596952D
:101F300087959093DA048093D90460910F0570918E
:101F400010058091D9049091DA04E69F9001E79FF3
:101F5000300D1124421B530B9C01220F331F880F9D
:101F6000991F880F991F880F991F820F931F481B75
:101F7000590B5093C6054093C50580910F0590916C
:101F80001005892B21F480E28093CA0507C0809157
:101F90000F0590911005805D8093CA058091D9044A
:101FA0009091DA04892B51F480910F0590911005DE
:101FB000892B21F480E28093CB0507C08091D9045E
:101FC0009091DA04805D8093CB058091C505909156
:101FD000C605EAECF5E0805D828385E2838380912B
:101FE0002205882391F060E089E10E94580686E28C
:101FF00091E00E9477055E9A60E089E10E945806B0
:102000008AEC95E00E9477055E980E941A03089575
:102010001092D2051092D1054091EB0480918F056A
:10202000882341F0E3E2F5E08FE4818386E4828354
:1020300083837DC050E09A01369527953695279584
:10204000ABE7B4E10E944C359695879590931005C7
:1020500080930F0520910F0530911005E4E6E29F73
:10206000C001E39F900D11249A01281B390BADECA0
:10207000BCEC0E944C3596958795969587959695DC
:1020800087959093DA048093D90460910F0570913D
:1020900010058091D9049091DA04E69F9001E79FA2
:1020A000300D1124421B530B9C01220F331F880F4C
:1020B000991F880F991F880F991F820F931F481B24
:1020C000590B5093C6054093C50580910F0590911B
:1020D0001005892B21F480E28093230507C08091AD
:1020E0000F0590911005805D809323058091D904A0
:1020F0009091DA04892B51F480910F05909110058D
:10210000892B21F480E28093240507C08091D904B3
:102110009091DA04805D809324058091C5059091AB
:10212000C605E3E2F5E0805D828385E283838091EA
:102130002205882391F060E083E20E94580686E23F
:1021400091E00E9477055E9A60E083E20E94580663
:1021500083E295E00E9477055E980E94DC03089573
:10216000CF93DF938091910482608093910480915A
:10217000910481608093910460919104809116058F
:102180000E94032988237CF162E0809116050E9459
:102190005529882344F100C0809116050E945D29CD
:1021A000C82F62E0809116050E9459298823DCF02F
:1021B00000C062E0809116050E94552988239CF09A
:1021C00000C0809116050E945D29D82F62E08091A1
:1021D00016050E945929882334F08D2F82958F701F
:1021E000C07F8C2B8095DF91CF910895EF92FF9265
:1021F0000F931F93CF93DF9300D01F92CDB7DEB71D
:1022000080E290E29A83898380E28B83CE010196FB
:102210007C0110E060E0812F0E945806F7010191D7
:102220007F010E94B010081305C01F5F133091F7A3
:1022300080E001C081E00F900F900F90DF91CF916F
:102240001F910F91FF90EF9008958091900481303D
:1022500049F40E94DE051092900481E395E00E940B
:10226000990508950E94F610882339F081E00E94B4
:10227000DE0581E395E00E9499050895AC01892B64
:10228000C1F08091EC04882331F008959091EC0422
:10229000992319F0089520E030E08FE99FE001973D
:1022A000F1F700C00000A8952F5F3F4F421753077A
:1022B00069F70895AC01892BC1F08091EC0484305A
:1022C00031F008959091EC04943019F0089520E0D5
:1022D00030E08FE99FE00197F1F700C00000A8957A
:1022E0002F5F3F4F4217530769F70895AC01892BC1
:1022F000C1F08091EC04823031F008959091EC04AB
:10230000923019F0089520E030E08FE99FE00197C6
:10231000F1F700C00000A8952F5F3F4F4217530709
:1023200069F708958091EC04811105C084EF91E074
:102330000E943E11A8958091EC04811103C00E9477
:102340002511A89508958091EC04811103C0109285
:10235000C70523C08091EC04813019F48093C70530
:102360001CC08091EC04823019F48093C70515C01D
:102370008091EC04833019F48093C7050EC08091DE
:10238000EC04843019F48093C70507C08091EC04F5
:102390008A3019F48BE08093C7058091EC04809318
:1023A00022050E94CE0C2FEF85EA9EE0215080404E
:1023B0009040E1F700C00000A89508958091EC04DA
:1023C000843029F484EF91E00E945A11A8958091FD
:1023D000EC04843019F40E942511A89508950F93F8
:1023E0001F93CF9380919A05823079F038F4882337
:1023F00009F415C1813009F448C00BC1833009F4D8
:10240000C6C0843009F483C004C1A8958091DE045D
:102410008F5F8093DE041092BA058091DE048536CA
:1024200038F084E68093DE0480E090E0C4E628C0C3
:102430000E94600FF9CF0196883E23E09207B0F02A
:102440004D991CC08091DE048F5F8093DE048091E3
:10245000DE04853618F0C093DE0402C00E94600FCF
:10246000A8954D9BEFCF80E090E00AC0EFE9FFE038
:102470003197F1F700C00000A89502C080E090E01D
:102480004D9BD9CF0E940D0ECAC0A8958091DE0445
:1024900081508093DE048091DE04823030F481E04C
:1024A0008093DE048093BA0502C01092BA050E94A0
:1024B000600F00E010E0C1E025C00F5F1F4F083E35
:1024C000F3E01F07C0F018991DC08091DE04815011
:1024D0008093DE048091DE04823028F4C093DE0411
:1024E000C093BA0502C01092BA050E94600FA89569
:1024F000189BEBCF07C08FE99FE00197F1F700C071
:102500000000A895189BD9CF0E940D0E88C0A895F1
:102510008091EB048F5F8093EB0410928F05809184
:10252000EB04853638F084E68093EB0480E090E09D
:10253000C4E628C00E940810F9CF0196883EE3E067
:102540009E07B0F04A991CC08091EB048F5F809386
:10255000EB048091EB04853618F0C093EB0402C0C5
:102560000E940810A8954A9BEFCF80E090E00AC037
:10257000EFE9FFE03197F1F700C00000A89502C035
:1025800080E090E04A9BD9CF0E94360E48C0A895C3
:102590008091EB0481508093EB048091EB048230B6
:1025A00030F481E08093EB0480938F0502C0109299
:1025B0008F050E94081000E010E0C1E025C00F5F09
:1025C0001F4F083EF3E01F07C0F04C991DC08091DB
:1025D000EB0481508093EB048091EB04811105C0E2
:1025E000C093EB04C0938F0502C010928F050E9428
:1025F0000810A8954C9BEBCF07C08FE99FE001978F
:10260000F1F700C00000A8954C9BD9CF0E94360E70
:1026100006C0EFE9FFE03197F1F700C0000010922B
:10262000E0041092DF041092D2051092D1051092AE
:102630008C051092E50510920105CF911F910F9125
:1026400008954A990BC08FE59DE60197F1F700C008
:10265000000089B182FB882780F908954C990AC04F
:102660008FE59DE60197F1F700C0000089B18295E2
:10267000817008954D990BC08FE59DE60197F1F7A4
:1026800000C0000089B185FB882780F9089518995A
:1026900009C08FE59DE60197F1F700C0000083B106
:1026A0008170089581E00895CF93DF93C2E5D3E070
:1026B0000E942113882351F08FE99FE00197F1F7E1
:1026C00000C00000A895219799F781E0DF91CF9194
:1026D00008954A991AC08FE59DE60197F1F700C069
:1026E000000089B1282F247082FD11C099B1892F73
:1026F000847092FD0EC0EFE9FFE03197F1F700C062
:102700000000A8954A9BF7CF089581E0089581E0E5
:102710000895822F08954A9926C08FE59DE6019776
:10272000F1F700C0000089B1282F247082FD1DC080
:102730005E9A9FEFE0E7F2E09150E040F040E1F771
:1027400000C00000A8955E9899B1892F847092FD11
:102750000EC0EFE9FFE03197F1F700C00000A89547
:102760004A9BF7CF089581E0089581E00895822F74
:102770000895CF9361E087E00E94580680E192E0DF
:102780000E947705A8950E94ED0CC6E048C04D99BF
:1027900022C08FE59DE60197F1F700C000004D993A
:1027A0003DC08091C705863030F48091C7058F5FAA
:1027B0008093C70502C01092C7050E94ED0C4D9989
:1027C0002DC08FE99FE00197F1F700C00000A895A8
:1027D0004D9BF7CF23C0189921C08FE59DE6019747
:1027E000F1F700C00000189919C08091C70588232F
:1027F00031F08091C70581508093C70502C0C09316
:10280000C7050E94ED0C189909C08FE99FE0019758
:10281000F1F700C00000A895189BF7CFA8950E947B
:1028200069138111B4CFCF91089561E085E00E94D2
:10283000580686E192E00E947705A89560E08BE15A
:102840000E94580680E292E00E947705A8950E94B7
:102850004C0D40C04D991EC08FE59DE60197F1F7E4
:1028600000C000004D9935C08091C8058E3128F414
:102870008091C8058F5F8093C8050E944C0D9FEF23
:1028800021EE84E0915020408040E1F700C000003C
:10289000A8951FC018991DC08FE59DE60197F1F717
:1028A00000C00000189915C08091C805823028F03A
:1028B0008091C80581508093C8050E944C0D9FEF00
:1028C00021EE84E0915020408040E1F700C00000FC
:1028D000A895A8950E9469138111BCCF089561E065
:1028E00084E00E94580688E292E00E947705A8954D
:1028F0000E944D0A60E08FE10E94580683E392E057
:102900000E947705A89540C04D991EC08FE59DE6B1
:102910000197F1F700C000004D9935C08091200566
:10292000843628F4809120058F5F809320050E94D3
:102930004D0A9FEF21EE84E0915020408040E1F766
:1029400000C00000A8951FC018991DC08FE59AEE21
:102950000197F1F700C00000189915C0809120057B
:10296000882329F0809120058150809320050E94C2
:102970004D0A9FEF21EE84E0915020408040E1F726
:1029800000C00000A895A8950E9469138111BCCFD2
:1029900082E00E943C050E947F06089583E00E9429
:1029A0003C050E947F0618990DC04C990BC08FE919
:1029B0009FE00197F1F700C00000A895189902C0A8
:1029C0004C9BF5CF61E087E00E94580686E392E0D9
:1029D0000E947705A89580E00E949D0A60E08FE143
:1029E0000E94580683E392E00E947705A89542C0B2
:1029F0004D991FC08FE59DE60197F1F700C00000DB
:102A00004D9937C08091E304863428F48091E30423
:102A10008F5F8093E30480E00E949D0A9FEF21EE88
:102A200084E0915020408040E1F700C00000A8956C
:102A300020C018991EC08FE59AEE0197F1F700C0EB
:102A40000000189916C08091E304853128F0809128
:102A5000E30481508093E30480E00E949D0A9FEF8D
:102A600021EE84E0915020408040E1F700C000005A
:102A7000A895A8950E9469138111BACF82E00E949F
:102A80003C050E947F0661E087E00E9458068FE3C4
:102A900092E00E947705A89581E00E949D0A60E07F
:102AA0008FE10E94580683E392E00E947705A89583
:102AB00042C04D991FC08FE59DE60197F1F700C018
:102AC00000004D9937C080918D05863428F480919F
:102AD0008D058F5F80938D0581E00E949D0A9FEF99
:102AE00021EE84E0915020408040E1F700C00000DA
:102AF000A89520C018991EC08FE59AEE0197F1F7AE
:102B000000C00000189916C080918D05853128F00D
:102B100080918D05815080938D0581E00E949D0AF2
:102B20009FEF21EE84E0915020408040E1F700C00B
:102B30000000A895A8950E9469138111BACF82E080
:102B40000E943C050E947F06089518990DC04C997B
:102B50000BC08FE99FE00197F1F700C00000A89536
:102B6000189902C04C9BF5CF61E083E00E945806A3
:102B700088E492E00E947705A89580E00E94430BCC
:102B800060E08FE10E94580683E392E00E9477059F
:102B9000A89542C04D991FC08FE59DE60197F1F7BA
:102BA00000C000004D9937C080912105823328F480
:102BB000809121058F5F8093210580E00E94430B67
:102BC0009FEF21EE84E0915020408040E1F700C06B
:102BD0000000A89520C018991EC08FE59AEE0197B5
:102BE000F1F700C00000189916C0809121058823D4
:102BF00029F08091210581508093210580E00E9479
:102C0000430B9FEF21EE84E0915020408040E1F79C
:102C100000C00000A895A8950E9469138111BACF41
:102C200082E00E943C050E947F0661E083E00E94F2
:102C3000580686E592E00E947705A89581E00E94FB
:102C4000430B60E08FE10E94580683E392E00E940C
:102C50007705A89542C04D991FC08FE59DE6019765
:102C6000F1F700C000004D9937C080911105823303
:102C700028F4809111058F5F8093110581E00E94F7
:102C8000430B9FEF21EE84E0915020408040E1F71C
:102C900000C00000A89520C018991EC08FE59AEECC
:102CA0000197F1F700C00000189916C08091110536
:102CB000882329F08091110581508093110581E0CE
:102CC0000E94430B9FEF21EE84E091502040804012
:102CD000E1F700C00000A895A8950E946913811132
:102CE000BACF82E00E943C050E947F06089561E011
:102CF00082E00E94580684E692E00E947705A8953B
:102D00000E94210940C04D991EC08FE59DE60197A4
:102D1000F1F700C000004D9935C08091D0058C308E
:102D200028F48091D0058F5F8093D0050E942109FF
:102D30009FEF21EE84E0915020408040E1F700C0F9
:102D40000000A8951FC018991DC08FE59AEE019745
:102D5000F1F700C00000189915C08091D0058230AD
:102D600028F08091D00581508093D0050E942109E0
:102D70009FEF21EE84E0915020408040E1F700C0B9
:102D80000000A895A8950E9469138111BCCF0895F1
:102D90004D9909C08FE99FE00197F1F700C000004D
:102DA000A8954D9BF7CF0895189909C08FE99FE02A
:102DB0000197F1F700C00000A895189BF7CF089580
:102DC000CF93C1E034C04D9918C08FE59DE60197BF
:102DD000F1F700C000004D990DC08091ED04811104
:102DE00003C0C093ED0402C01092ED0480E00E9485
:102DF000F90BA8950E94C81619C0189917C08FE53D
:102E00009DE60197F1F700C0000018990DC0809170
:102E1000ED04811103C0C093ED0402C01092ED04D3
:102E200080E00E94F90BA8950E94D416A8950E94F4
:102E30008B138111C8CFCF91089536C04D9919C019
:102E40008FE59DE60197F1F700C000004D990EC097
:102E500080911305811104C081E08093130502C0A5
:102E60001092130581E00E94F90BA8950E94C816E4
:102E70001AC0189918C08FE59DE60197F1F700C0B8
:102E8000000018990EC080911305811104C081E0E3
:102E90008093130502C01092130581E00E94F90B84
:102EA000A8950E94D416A8950E948B138111C6CFB5
:102EB0000895CF93C1E034C04D9918C08FE59DE6C9
:102EC0000197F1F700C000004D990DC080911205E7
:102ED000811103C0C093120502C01092120582E056
:102EE0000E94F90BA8950E94C81619C0189917C01E
:102EF0008FE59DE60197F1F700C0000018990DC01D
:102F000080911205811103C0C093120502C0109276
:102F1000120582E00E94F90BA8950E94D416A8958C
:102F20000E948B138111C8CF83E08093EC04CF9172
:102F30000895CF93C1E034C04D9918C08FE59DE648
:102F40000197F1F700C000004D990DC080919305E5
:102F5000811103C0C093930502C01092930583E0D2
:102F60000E94F90BA8950E94C81619C0189917C09D
:102F70008FE59DE60197F1F700C0000018990DC09C
:102F800080919305811103C0C093930502C01092F4
:102F9000930583E00E94F90BA8950E94D416A8958A
:102FA0000E948B138111C8CF83E08093EC04CF91F2
:102FB0000895CF93C1E034C04D9918C08FE59DE6C8
:102FC0000197F1F700C000004D990DC080913005C8
:102FD000811103C0C093300502C01092300584E017
:102FE0000E94F90BA8950E94C81619C0189917C01D
:102FF0008FE59DE60197F1F700C0000018990DC01C
:1030000080913005811103C0C093300502C0109239
:10301000300584E00E94F90BA8950E94D416A8956B
:103020000E948B138111C8CF83E08093EC04CF9171
:103030000895CF93C1E034C04D9918C08FE59DE647
:103040000197F1F700C000004D990DC08091DD049B
:10305000811103C0C093DD0402C01092DD0485E03D
:103060000E94F90BA8950E94C81619C0189917C09C
:103070008FE59DE60197F1F700C0000018990DC09B
:103080008091DD04811103C0C093DD0402C0109261
:10309000DD0485E00E94F90BA8950E94D416A8953E
:1030A0000E948B138111C8CF83E08093EC04CF91F1
:1030B0000895CF93C1E034C04D9918C08FE59DE6C7
:1030C0000197F1F700C000004D990DC080918E0569
:1030D000811103C0C0938E0502C010928E0586E058
:1030E0000E94F90BA8950E94C81619C0189917C01C
:1030F0008FE59DE60197F1F700C0000018990DC01B
:1031000080918E05811103C0C0938E0502C010927C
:103110008E0586E00E94F90BA8950E94D416A8950A
:103120000E948B138111C8CF83E08093EC04CF9170
:103130000895EF92FF920F931F93CF9360E080E08A
:103140000E94580684E792E00E947705A89561E006
:1031500082E00E94580688E892E00E947705A895D0
:103160002FEF8FE097E2215080409040E1F700C0C0
:103170000000A8958091D005882309F482C00E94A0
:103180007F0660E081E00E94580689E992E00E9493
:103190007705A89561E081E00E94580686EA92E0F2
:1031A0000E947705A89560E085E10E94580683EBB0
:1031B00092E00E947705A89561E085E10E9458069B
:1031C00080EC92E00E947705A8958091D005882335
:1031D00009F457C0E12CF12CC0E08C2F0E94750936
:1031E00087010D521A4F3EC04D991DC0EFE5FDE617
:1031F0003197F1F700C000004D9933C0F80180818C
:10320000873118F480818F5F80838C2F0E9475092D
:10321000FFEF21EE84E0F15020408040E1F700C054
:103220000000A8951EC018991CC0EFE5FDE6319777
:10323000F1F700C00000189914C0F80180818823BC
:1032400019F08081815080838C2F0E947509FFEFD7
:1032500021EE84E0F15020408040E1F700C0000002
:10326000A895A8950E9469138111BECFCF5F809168
:10327000D005C81730F49FEFE91AF90AC83009F0F1
:10328000ACCF8091D005893008F484C00E947F06BD
:1032900060E080E00E9458068DEC92E00E94770585
:1032A000A89561E080E00E94580681ED92E00E94BE
:1032B0007705A89560E084E10E94580685ED92E0CC
:1032C0000E947705A89561E084E10E94580689ED87
:1032D00092E00E947705A8958091D005893008F486
:1032E00059C06894EE24E3F8F12CC8E08C2F0E94BA
:1032F000750987010D521A4F3EC04D991DC0EFE56B
:10330000FDE63197F1F700C000004D9933C0F80198
:103310008081873118F480818F5F80838C2F0E9499
:103320007509FFEF21EE84E0F15020408040E1F785
:1033300000C00000A8951EC018991CC0EFE5FDE66E
:103340003197F1F700C00000189914C0F80180818E
:10335000882319F08081815080838C2F0E94750909
:10336000FFEF21EE84E0F15020408040E1F700C003
:103370000000A895A8950E9469138111BECFCF5F68
:103380008091D005C81730F49FEFE91AF90ACC30C4
:1033900009F0ACCFCF911F910F91FF90EF9008955E
:1033A000CF9360E080E00E94580684E792E00E949C
:1033B0007705A89561E082E00E9458068DED92E0C5
:1033C0000E947705A8952FEF8FE097E2215080406B
:1033D0009040E1F700C00000A89560E080E00E9406
:1033E00058068DEE92E00E947705A89561E080E096
:1033F0000E94580682E093E00E947705A89560E05D
:1034000084E10E94580687E193E00E947705A89521
:1034100061E084E10E9458068CE293E00E94770507
:10342000A895C0E08C2F0E94F90B2FEF80E792E067
:10343000215080409040E1F700C00000A895CF5F88
:10344000C73081F760E086E00E94580686E892E087
:103450000E947705A8950E94E01661E086E00E9430
:10346000580686E892E00E947705A8950E941D17ED
:1034700060E08AE10E94580686E892E00E947705A3
:10348000A8950E94591761E08AE10E94580686E8D3
:1034900092E00E947705A8950E94991760E081E16B
:1034A0000E94580686E892E00E947705A8950E943F
:1034B000D91761E081E10E94580686E892E00E94F7
:1034C0007705A8950E94191860E085E20E945806C9
:1034D00086E892E00E947705A8950E945918CF913E
:1034E000089583E00E943C050E947F062FEF81EE45
:1034F00094E0215080409040E1F700C00000A89582
:1035000060E080E00E94580684E792E00E94770520
:10351000A8954D990DC04A990BC08FE99FE001977E
:10352000F1F700C00000A8954D9902C04A9BF5CF65
:103530000E94B91383E00E943C058091C705853045
:10354000D9F41F9281E08F9381E493E09F938F934E
:103550000E94E2365E989FEF23ED80E39150204079
:103560008040E1F700C00000A8951092C7050F90B9
:103570000F900F900F901EC08091C7058630D1F438
:103580001F9282E08F9381E493E09F938F930E9438
:10359000E2365E989FEF23ED80E39150204080401B
:1035A000E1F700C00000A8951092C7050F900F909A
:1035B0000F900F908091EC04833001F50E94A406D7
:1035C0000E94151483E00E943C050E94A4060E94FC
:1035D000771683E00E943C050E94A4060E94991879
:1035E00083E00E943C050E94A4060E94D01983E05B
:1035F0000E943C05809122058093EC040E947F0686
:103600009FEF21EE84E0915020408040E1F700C020
:103610000000A89508958091E605813071F487E453
:1036200093E00E94FF362FEF89E698E12150804019
:103630009040E1F700C00000A8951092E6055F9861
:103640002B98E1E8F0E08081887F808385B5887FD2
:1036500085BDE1EBF0E08081887F80835F982B98C7
:1036600008951092C905E19AE99A78948091C90564
:10367000882331F010C0019729F4E99881E008957A
:103680008FED9EE225E02A95F1F70000A8952091A4
:10369000C905222381F3E99880E00895D89AE8E6E5
:1036A000F0E0808181608083DA9A80818460808309
:1036B000089516BC1092B2001092850010928400FA
:1036C0001092E0041092DF042091F4043091F5048C
:1036D00080918A0590918B058217930728F5209198
:1036E000F4043091F50440918A0550918B05809146
:1036F0002005241B350B90E082179307C8F1209119
:10370000F4043091F50440918A0550918B05909115
:103710002005892F90E0841B950B820F931F9093B7
:10372000D2058093D10524C020918A0530918B0564
:103730004091F4045091F50480912005241B350B31
:1037400090E082179307A0F020918A0530918B05B5
:103750004091F4045091F50490912005892F90E058
:10376000841B950B820F931F9093D2058093D105F4
:103770001092E505109201058091EC04823039F534
:103780008091E905882309F442C08091EB058823E4
:1037900009F43DC08091EA058823C9F181E0809356
:1037A000E6058BE493E00E94FF360E944E1B2FEF4C
:1037B00089E698E1215080409040E1F700C0000088
:1037C000A895E1E8F0E08081816080830895809190
:1037D000EC04843021F08091EC048130C1F481E06C
:1037E0008093E6058BE493E00E94FF360E944E1B17
:1037F0002FEF89E698E1215080409040E1F700C02A
:103800000000A895E1E8F0E0808181608083089560
:103810008091EC04823029F482E593E00E947611D5
:10382000A8958091EC04823019F40E942511A89586
:103830008091EC04823019F40E94302BA89580917D
:10384000EC04823069F48091E705813049F40E94EC
:10385000C6070E94E6060E94F0061092E705A895AA
:103860008091EC04823059F48091E805813039F47C
:103870000E9496080E940C071092E805A895809176
:10388000E905882379F08091EB05882359F0809130
:10389000EA05882339F08091E605811105C00E9470
:1038A000591B08950E940B1B0895EF92FF920F93EE
:1038B0001F93CF93DF9360E080E00E9458068FE46F
:1038C00093E00E947705A89561E080E00E94580689
:1038D00084E693E00E947705A89560E084E10E9469
:1038E000580689E793E00E947705A89561E084E196
:1038F0000E9458068EE893E00E947705A895E09014
:10390000F404F090F50400918A0510918B058EEA7D
:1039100091E09093F5048093F40490938B05809349
:103920008A050E94591B7894C4EBD0E0CE010E9416
:10393000A00DA8950E945413882351F08091EC04A7
:10394000893031F08091EC04883011F0219771F7C3
:103950000E940B1BF894F092F504E092F40410938B
:103960008B0500938A0583E00E943C05DF91CF918F
:103970001F910F91FF90EF90089580912205843060
:1039800019F0982F9D7F29F52FEF89EF90E02150B6
:1039900080409040E1F700C000004D9915C04A9961
:1039A00013C08FE39FE10197F1F700C000004D992C
:1039B00006C04A9904C086E08093EC0412C080914E
:1039C00022058093EC040DC0809122058093EC04C5
:1039D00008C08093EC049091EC04963009F070C01C
:1039E00071C08091EC04863009F46CC0809122058E
:1039F000823019F0843009F063C08FEF9CE70197A3
:103A0000F1F700C000004A9914C08FE99FE00197C8
:103A1000F1F700C000004A9907C085E08093EC04EC
:103A200084E080939A054EC0809122058093EC0437
:103A300049C04C9914C08FE99FE00197F1F700C08D
:103A400000004C9907C085E08093EC0483E08093EC
:103A50009A0538C0809122058093EC0433C04D99BB
:103A600014C08FE99FE00197F1F700C000004D9965
:103A700007C085E08093EC0482E080939A0522C021
:103A8000809122058093EC041DC0189914C08FE921
:103A90009FE00197F1F700C00000189907C085E08A
:103AA0008093EC0481E080939A050CC080912205FC
:103AB0008093EC0407C0809122058093EC0402C03F
:103AC0008093EC049091EC0480912205981302C03D
:103AD0000E944E1BD89ADA9A0895ECEBF0E08081B0
:103AE0008B7F80833C983D982FEF83ED90E32150AE
:103AF00080409040E1F700C00000359B05C086B1D2
:103B00000E94932980E0089581E00895CF939091D9
:103B10009104926090939104882331F080919104F4
:103B200081608093910405C0809191048E7F809381
:103B3000910460919104809116050E9403298823C5
:103B40000CF463C062E0809116050E945529882319
:103B50000CF45BC000C064E0809116050E947A29D5
:103B6000811102C0C0E101C0C0E065E0809116058E
:103B70000E947A29811101C0C06266E08091160519
:103B80000E947A29811101C0C06467E08091160506
:103B90000E947A29811101C0C06862E080911605F7
:103BA0000E94592988238CF100C062E0809116059B
:103BB0000E94552988234CF100C064E080911605CD
:103BC0000E947A29811101C0C16065E080911605CB
:103BD0000E947A29811101C0C26066E080911605B9
:103BE0000E947A29811101C0C46067E080911605A6
:103BF0000E947A29811101C0C86062E08091160597
:103C00000E94592988230CF08C2FCF91089580E0D1
:103C10000E94861D18160CF480E008950E94071E6D
:103C2000882374F0882329F085E08A95F1F7000055
:103C3000FBCF85E18A95F1F7000080E00E94861DA8
:103C4000089541E062E0809116050E9429298823A9
:103C500054F000C040E062E0809116050E942929DE
:103C600018160CF480E00895CF93C82F809191042A
:103C70008D7F80939104662331F08091910481605F
:103C80008093910405C0809191048E7F809391046C
:103C900060919104809116050E94032988230CF4F9
:103CA00097C0809191048F778093910480919104C3
:103CB0008F7B80939104809191048F7D80939104F8
:103CC000809191048F7E80939104CC232CF4809179
:103CD0009104806880939104C6FF05C0809191048F
:103CE000806480939104C5FF05C080919104806237
:103CF00080939104C4FF05C08091910480618093FA
:103D0000910460919104809116050E9403298823F3
:103D10000CF45EC00E94211E88230CF459C08091CF
:103D200091048F7780939104809191048F7B80938D
:103D30009104809191048F7D8093910480919104EE
:103D40008F7E80939104C3FF05C0809191048068A9
:103D500080939104C2FF05C0809191048064809398
:103D60009104C1FF05C08091910480628093910409
:103D7000C0FF05C08091910480618093910460919F
:103D80009104809116050E94032988230CF10E945A
:103D9000211E8823ECF08091910480688093910427
:103DA0008091910480648093910480919104806259
:103DB000809391048091910480618093910460913B
:103DC0009104809116050E94032918160CF480E0D6
:103DD000CF910895CF93C82F0E940E1E88233CF0E8
:103DE00060E08C2F0E94341E18160CF480E0CF91F6
:103DF00008950E94F028109291046091910480919E
:103E000016050E9403298F3F09F46FC08FE59AEED3
:103E10000197F1F700C000008091910480618093C8
:103E20009104809191048062809391046091910447
:103E3000809116050E9403298F3F09F456C00E9405
:103E4000211E8F3F09F451C08FEF9CE70197F1F7D6
:103E500000C000000E94211E8F3F09F446C08FE180
:103E60009EE40197F1F700C000000E94211E8F3FE1
:103E7000E1F18FE193E00197F1F700C000001092AB
:103E800091048091910480628093910460919104E7
:103E9000809116050E9403298F3F39F10E94211E4F
:103EA0008F3F19F18FE193E00197F1F700C0000017
:103EB00088E20E94EA1E8F3FC1F088E00E94EA1E5D
:103EC0008F3F99F081E00E94EA1E8F3F71F086E0FB
:103ED0000E94EA1E8F3F49F08CE00E94EA1E91E0AA
:103EE0008F3F09F090E0892F81950895882331F064
:103EF00080919104877F8093910405C08091910403
:103F000088608093910460919104809116050E94CD
:103F10000329089561110EC0882314F0805801C050
:103F20008EEF0E94EA1E91E08F3F09F090E0892F0A
:103F300081950895613079F490E4980F12F08054DF
:103F400001C08EEF0E94EA1E91E08F3F09F090E0E1
:103F5000892F819508958EEF0895803410F080E0C8
:103F600001C080E480580E94EA1E0895CF93C82FB4
:103F70000E940E1ECA3019F40E94AD1F13C0883271
:103F800029F460E080EC0E94341E06C0883621F4DB
:103F900060E080E80E94341E0E940E1E61E08C2FBB
:103FA0000E94341ECF910895CF93DF93EC012196A8
:103FB000FC018081882329F00E94B61F899181111C
:103FC000FBCFDF91CF9108951F920F920FB60F9202
:103FD00011242F933F934F935F936F937F938F930E
:103FE0009F93AF93BF93EF93FF938091EC04823044
:103FF00021F08091EC04843079F40E940B1BF8943A
:104000008091EC048093220587E08093EC04E8E63D
:10401000F0E080818E7F8083FF91EF91BF91AF911F
:104020009F918F917F916F915F914F913F912F91D0
:104030000F900FBE0F901F9018951F920F920FB602
:104040000F9211248F93EF93FF938091EC048230B1
:1040500041F08091EC04843021F08091EC048111D6
:104060000DC0F8948091EC048093220587E0809342
:10407000EC04E8E6F0E080818B7F8083FF91EF9194
:104080008F910F900FBE0F901F90189590E0883081
:104090009105E0F5FC01E85BFF4F0C944635209854
:1040A000EBE6F0E080818160808308952198EBE663
:1040B000F0E080818260808308952298EBE6F0E052
:1040C00080818460808308952398EBE6F0E080810E
:1040D0008860808308952498EBE6F0E08081806119
:1040E000808308952598EBE6F0E0808180628083EC
:1040F00008952698EBE6F0E080818064808308953F
:104100002798EBE6F0E0808180688083089590E056
:10411000FC017097E830F105D8F5E05BFF4F0C9497
:1041200046355098EDE6F0E0808181608083089507
:104130005198EDE6F0E08081826080830895529886
:10414000EDE6F0E080818460808308955398EDE689
:10415000F0E080818860808308955498EDE6F0E077
:1041600080818061808308955598EDE6F0E080813C
:104170008062808308955698EDE6F0E08081806447
:10418000808308955798EDE6F0E080818068808311
:104190000895EBE6F0E08081108280E00E944620E6
:1041A000D89AE8E6F0E08081816080830895EDE6AA
:1041B000F0E08081108282E10E94872084E10E94E9
:1041C000872085E10E948720DA9AE8E6F0E0808186
:1041D0008460808308950E94C9200E94D72008959A
:1041E0001F920F920FB60F9211248F9381E080934C
:1041F000C905E19A8F910F900FBE0F901F901895EF
:104200005398E9E6F0E080818B7F8083808188602D
:1042100080830895E0E8F0E090819F73908390811F
:104220009F7C9083813061F028F0823079F0833078
:1042300099F017C0E0E8F0E080818F73808311C0AF
:10424000E0E8F0E08081806480830BC0E0E8F0E08B
:1042500080818068808305C0E0E8F0E08081806C28
:104260008083613061F028F0623079F0633099F03A
:104270000895E0E8F0E080818F7C80830895E0E895
:10428000F0E08081806180830895E0E8F0E0808143
:10429000806280830895E0E8F0E08081806380831D
:1042A0000895CF92DF92EF92FF9220E030E04AE74C
:1042B00054E40E947B2F6B017C012DEB37E346E831
:1042C0005BE30E94762F18163CF081E090E090931B
:1042D00098048093970443C02DEB37E346E05DE3F9
:1042E000C701B6010E94762F18163CF088E090E0D6
:1042F000909398048093970432C02DEB37E346E8FF
:104300005EE3C701B6010E94762F18163CF080E4E8
:1043100090E0909398048093970421C02DEB37E3AD
:1043200046E85FE3C701B6010E94762F18163CF0FD
:1043300080E091E0909398048093970410C02DEB57
:1043400037E346E850E4C701B6010E94762F1816FD
:1043500034F080E094E09093980480939704E1E82F
:10436000F0E08081887F8083FF90EF90DF90CF9096
:104370000895E82FA0E8B0E08C918C7F8C93A1E8A1
:10438000B0E08C91877E8C938E2F90E080319105E8
:1043900008F096C0FC01E85AFF4F0C944635E0E85F
:1043A000F0E080818C7F8083E1E8F0E08081877E8F
:1043B00080830895E0E8F0E0808181608083089543
:1043C000E0E8F0E08081826080830895E0E8F0E03A
:1043D0008081836080830895E1E8F0E080818860D7
:1043E00080830895E0E8F0E0808181608083E1E8E7
:1043F000F0E08081886080830895E0E8F0E08081CB
:1044000082608083E1E8F0E08081886080830895A5
:10441000E0E8F0E0808183608083E1E8F0E0808183
:10442000886080830895E1E8F0E080818061808386
:104430000895E0E8F0E0808181608083E1E8F0E0C9
:104440008081806180830895E0E8F0E0808182606F
:104450008083E1E8F0E08081806180830895E0E876
:10446000F0E0808183608083E1E8F0E0808180611A
:1044700080830895E1E8F0E0808188618083089579
:10448000E0E8F0E0808181608083E1E8F0E0808115
:10449000886180830895E0E8F0E080818260808315
:1044A000E1E8F0E08081886180830895E0E8F0E051
:1044B000808183608083E1E8F0E08081886180838F
:1044C0000895882331F0B59AEFE6F0E080818062AC
:1044D0008083662331F0B19AEFE6F0E0808182605C
:1044E0008083442331F0B29AEFE6F0E0808184606B
:1044F0008083222331F0B09AEFE6F0E08081816082
:10450000808308958F929F92AF92BF92CF92DF9255
:10451000EF92FF9220E030E040E05FE30E94CE3077
:104520006B017C0184E00E94B921C701B6010E94A1
:104530005121209197043091980440E050E060E0D0
:1045400074E284EF90E00E942735CA01B9010E940D
:104550001E304B015C0120E030E04AE754E4C70123
:10456000B6010E947B2F9B01AC01C501B4010E94E2
:10457000CE3020E030E040E85FE30E940A2F0E9446
:10458000ED2F7093890060938800FF90EF90DF908B
:10459000CF90BF90AF909F908F900895E4E6F0E0A9
:1045A0008081877F808360E070E080E090E40E94FB
:1045B000822260E080E00E940A2120E040E061E089
:1045C00080E00E9461220895E1E8F0E08081887F28
:1045D00080831092C905E19AE99A78948091C9057F
:1045E000882331F010C0019729F4E99881E00895FB
:1045F0008FED9EE225E02A95F1F70000A895209125
:10460000C905222381F3E1E8F0E0808181608083A5
:10461000E99880E008951F920F920FB60F9211242F
:104620002F933F934F935F936F937F938F939F93BA
:10463000AF93BF93EF93FF938091DF049091E004D9
:1046400001969093E0048093DF042091DF04309181
:10465000E0048091F4049091F5042817390730F1B3
:104660001092E0041092DF04109296040E94E4225B
:1046700080939604882371F00E940B1B8091EC04B8
:10468000813021F08091EC048093220589E08093B1
:10469000EC040CC08091BA0581110CC05F9A16BC65
:1046A0001092E505A99A85B5836085BD8091960431
:1046B00081113DC08091D1059091D20501969093D2
:1046C000D2058093D1052091D1053091D2058091FA
:1046D0008A0590918B052817390748F11092D20569
:1046E0001092D105109296040E94E42280939604C1
:1046F000882371F00E940B1B8091EC04813021F023
:104700008091EC048093220589E08093EC040FC033
:1047100080918F0581110BC02B9A1092B2001092DC
:104720000105B99AE1EBF0E0808184608083B19A61
:10473000FF91EF91BF91AF919F918F917F916F9179
:104740005F914F913F912F910F900FBE0F901F904F
:10475000189594B59F7394BD94B59F7C94BD81309A
:1047600051F028F0823059F0833069F00FC084B5E1
:104770008F7384BD0BC084B5806484BD07C084B5CD
:10478000806884BD03C084B5806C84BD613051F005
:1047900028F0623059F0633069F010C084B58F7C26
:1047A00084BD089584B5806184BD089584B5806218
:1047B00084BD089584B5806384BD089583ED93E03E
:1047C0000E94FF360895CF92DF92EF92FF9220E091
:1047D00030E04AE754E40E947B2F6B017C012DEB13
:1047E00037E346E857E30E94762F18163CF081E045
:1047F00090E0909395048093940448C02DEB37E3A8
:1048000046E059E3C701B6010E94762F18163CF026
:1048100088E090E0909395048093940437C02DEB4A
:1048200037E346E85AE3C701B6010E94762F18160F
:104830003CF080E490E0909395048093940426C02B
:104840002DEB37E346E85BE3C701B6010E94762F04
:1048500018163CF080E091E09093950480939404C6
:1048600015C02DEB37E346E85CE3C701B6010E94B3
:10487000762F18163CF080E094E090939504809396
:10488000940404C0109295041092940485B5887F16
:1048900085BDFF90EF90DF90CF900895E82F84B50D
:1048A0008C7F84BD85B5877F85BD8E2F90E0883055
:1048B000910588F5FC01E859FF4F0C94463584B505
:1048C0008C7F84BD85B5877F85BD089584B5816063
:1048D00084BD089584B5826084BD089584B58360E5
:1048E00084BD089585B5886085BD089584B58160CF
:1048F00084BD85B5886085BD089584B5826084BD1A
:1049000085B5886085BD089584B5836084BD85B50F
:10491000886085BD089589EE93E00E94FF36089572
:10492000882331F0A99AEEE6F0E0808182608083EE
:10493000662331F0AA9AEEE6F0E0808184608083FD
:10494000442331F0A89AEEE6F0E080818160808314
:104950000895E0EBF0E090819F73908390819F7CBD
:104960009083813061F028F0823079F0833099F0C3
:1049700017C0E0EBF0E080818F73808311C0E0EB23
:10498000F0E08081806480830BC0E0EBF0E0808108
:104990008068808305C0E0EBF0E08081806C8083DC
:1049A000613061F028F0623079F0633099F0089559
:1049B000E0EBF0E080818F7C80830895E0EBF0E015
:1049C0008081806180830895E0EBF0E080818062E7
:1049D00080830895E0EBF0E0808180638083089518
:1049E000CF92DF92EF92FF9220E030E04AE754E46A
:1049F0000E947B2F6B017C012DEB37E346E857E3E8
:104A00000E94762F18163CF081E090E0909393047A
:104A1000809392046AC02DEB37E346E059E3C70167
:104A2000B6010E94762F18163CF088E090E0909333
:104A300093048093920459C02DEB37E346E05AE388
:104A4000C701B6010E94762F18163CF080E290E074
:104A5000909393048093920448C02DEB37E346E88B
:104A60005AE3C701B6010E94762F18163CF080E485
:104A700090E0909393048093920437C02DEB37E33A
:104A800046E05BE3C701B6010E94762F18163CF0A2
:104A900080E890E0909393048093920426C02DEBDD
:104AA00037E346E85BE3C701B6010E94762F18168C
:104AB0003CF080E091E0909393048093920415C0C1
:104AC0002DEB37E346E85CE3C701B6010E94762F81
:104AD00018163CF080E094E0909393048093920445
:104AE00004C01092930410929204E1EBF0E08081F4
:104AF000887F8083FF90EF90DF90CF900895E82F1C
:104B0000A0EBB0E08C918C7F8C93A1EBB0E08C910A
:104B1000877F8C938E2F90E08830910508F049C0F4
:104B2000FC01E059FF4F0C944635E0EBF0E080814A
:104B30008C7F8083E1EBF0E08081877F8083089524
:104B4000E0EBF0E08081816080830895E0EBF0E0AD
:104B50008081826080830895E0EBF0E08081836053
:104B600080830895E1EBF0E0808188608083089580
:104B7000E0EBF0E0808181608083E1EBF0E0808118
:104B8000886080830895E0EBF0E08081826080831C
:104B9000E1EBF0E08081886080830895E0EBF0E055
:104BA000808183608083E1EBF0E080818860808396
:104BB00008958CEF93E00E94FF360895882331F02A
:104BC000B99AE0E7F0E0808182608083662331F06B
:104BD000BA9AE0E7F0E0808184608083442331F07A
:104BE000B89AE0E7F0E080818160808308958F9239
:104BF0009F92AF92BF92CF92DF92EF92FF9220E00E
:104C000030E040E05FE30E94CE306B017C0182E047
:104C10000E944E24C701B6010E94E3232091940410
:104C20003091950440E050E060E074E284EF90E061
:104C30000E942735CA01B9010E941E304B015C0158
:104C400020E030E04AE754E4C701B6010E947B2F20
:104C50009B01AC01C501B4010E94CE3020E030E0E0
:104C600040E85FE30E940A2F0E94ED2F67BDFF908E
:104C7000EF90DF90CF90BF90AF909F908F9008956E
:104C80008F929F92AF92BF92CF92DF92EF92FF925C
:104C900020E030E040E05FE30E94CE306B017C0119
:104CA00082E00E947F25C701B6010E94F024209176
:104CB00092043091930440E050E060E074E284EFAD
:104CC00090E00E942735CA01B9010E941E304B01B5
:104CD0005C0120E030E04AE754E4C701B6010E94DD
:104CE0007B2F9B01AC01C501B4010E94CE3020E0B6
:104CF00030E040E85FE30E940A2F0E94ED2F6093AE
:104D0000B300FF90EF90DF90CF90BF90AF909F9057
:104D10008F90089510929504109294041092E505D6
:104D2000E4E6F0E080818F7D808360E070E080E0E9
:104D300090E40E94F72560E080E00E94A92340E013
:104D400060E081E00E9490240895109293041092F4
:104D5000920410920105E4E6F0E080818F7B80836D
:104D600060E070E080E090E40E94402660E080E037
:104D70000E94A92440E060E081E00E94DE250895C1
:104D80001F920F920FB60F9211248F939F938091D1
:104D9000E5058F5F8093E5059091E5058091E3043B
:104DA000981748F01092E50581E0809317055F9809
:104DB00085B5887F85BDA99A9F918F910F900FBE71
:104DC0000F901F9018951F920F920FB60F921124FB
:104DD0008F939F93EF93FF93809101058F5F809353
:104DE00001059091010580918D05981758F010925A
:104DF000010581E08093C4052B98E1EBF0E0808110
:104E0000887F8083B99AFF91EF919F918F910F9046
:104E10000FBE0F901F9018958FE19EE40197F1F758
:104E200000C000000FB6F894A895809160008861DA
:104E300080936000109260000FBE0E94E72E9FEFEB
:104E400029E688E1915020408040E1F700C0000051
:104E50000E945905A8950E942A01A89580E00E9409
:104E6000DE05A8959FEF23EC89E09150204080401B
:104E7000E1F700C000000E940021A8950E94EB20ED
:104E8000A8950E948807A8959FEF20E782E091509F
:104E900020408040E1F700C00000A895189912C09A
:104EA0004C9910C08FE39CE90197F1F700C0000016
:104EB000189908C04C9906C00E94CE140E946F1425
:104EC0000E94A5150E943207A8959FEF23EC89E068
:104ED000915020408040E1F700C00000A8958091EB
:104EE000EC04823021F08091EC04843029F40E949B
:104EF000600F0E94081006C00E945F0E0E941A03F5
:104F00000E94DC030E94CE22A8950E948A26A895C2
:104F10000E94A526A8959FEF23EC89E091502040A0
:104F20008040E1F700C00000A89520E041E060E883
:104F300075E280E090E00E94882C8AE090E00E9478
:104F4000F8360E940B1B0E94591B7894E091EC04E8
:104F50008E2F90E08B30910508F035C1FC01E858A8
:104F6000FF4F0C9446350E94081CA89532C10E9440
:104F70000B1BF8940E94ED2CA8958091EC048A30CC
:104F800009F427C1809122058093EC048091EC0400
:104F9000809322050E940B1B0E94591B789419C113
:104FA00083E00E943C050E940B1BF8940E94C006FF
:104FB0000E94ED0C6091C70583E090E00E94B73736
:104FC0000E94A3118091EC04823041F08091EC04A6
:104FD000882321F08091EC04843021F40E94320770
:104FE000A89578948091EC04823029F08091EC04AB
:104FF000843009F0EEC00E94591B7894EAC00E94E8
:10500000DE11A895E6C00E940B1B0E949211A89584
:10501000E0C00E940B1B0E94BD1CA8959FEF29E6D3
:1050200088E1915020408040E1F700C00000A89541
:105030000E94591B7894CDC00E940B1BF8940E94CB
:10504000711AA8950E94A3118091EC04823041F05E
:105050008091EC04882321F08091EC04843021F4C9
:105060000E943207A89578948091EC04823021F058
:105070008091EC04843019F40E94591B78940E94AA
:105080004E1BA7C00E940B1BF8940E94EF11809149
:105090002205843049F49FEF2BE48DE191502040AC
:1050A0008040E1F700C00000A89580912205809320
:1050B000EC048091EC04809322050E94591B7894A3
:1050C0000E944E1B86C00E94551CA8950E947F0618
:1050D0008091EC04893041F08091EC04883021F01B
:1050E0001092EC040E94A3118091EC04823041F0F4
:1050F0008091EC04843021F08091EC04811104C093
:105100000E943207A89578948091EC04823011F0C7
:105110008091EC040E94591B78940E944E1B59C048
:105120000E940B1B26C05E9A61E088E10E9458062F
:105130008FE094E00E9477055E989FEF29E688E172
:10514000915020408040E1F700C00000A89561E048
:1051500088E10E9458068CE191E00E9477059FEF5C
:1051600023EC89E0915020408040E1F700C000002E
:10517000A8950E94311B8111D6CF80912205809382
:10518000EC048091EC04809322058091EC04823041
:1051900041F08091EC04843021F08091EC04811185
:1051A00004C00E943207A89578948091EC04823064
:1051B00021F08091EC04843019F40E94591B7894FA
:1051C0000E944E1B06C08FE99FE00197F1F700C0D7
:1051D00000008FE99FE00197F1F700C00000B6CE14
:1051E0000E9493298FE39FE10197F1F700C000002F
:1051F00080E090E0FC01EA50FB4F1082019688307D
:105200009105C1F70895CF938830E0F4C62FE82FB9
:10521000F0E0EA50FB4F60839091E005892B880F06
:105220000E949C29811110C08C2F0E94DD298111C0
:105230000DC00E94CD2991E0811101C090E0892F1D
:10524000819505C08EEF03C08FEF01C08FEFCF9126
:105250000895883030F5683030F5282F30E0F901B6
:10526000EA50FB4F9081413049F441E050E002C0E8
:10527000440F551F6A95E2F7942B0BC0411109C0EA
:1052800041E050E002C0440F551F6A95E2F7409597
:105290009423F901EA50FB4F9083692F0E94032960
:1052A00008958EEF08958EEF089541E00E94292918
:1052B000089540E00E9429290895CF93883098F4FA
:1052C0009091E005892B880F81600E949C298111B3
:1052D0000CC00E94F529C82FC0950E94CD298111CC
:1052E00006C08C2F05C08EEF03C08FEF01C08FEF7B
:1052F000CF910895CF93883088F4683088F4C62F12
:105300000E945D2988236CF0082E000C990B02C0C6
:1053100095958795CA95E2F7817003C08EEF01C01D
:105320008EEFCF910895E9EBF0E080818C7F808350
:1053300088E48093B8000895ECEBF0E094EA908361
:10534000908199233CF095E09A95F1F700009081C7
:105350009923CCF79091B900987F9830D1F480933D
:10536000BB00ECEBF0E084E88083808188233CF094
:1053700085E08A95F1F7000080818823CCF7909131
:10538000B900987F983139F081E0903429F480E0B9
:10539000089581E0089580E00895ECEBF0E084E961
:1053A0008083808184FF07C085E08A95F1F7000043
:1053B000808184FDF9CF80E008958093BB00ECEB01
:1053C000F0E084E88083808188233CF085E08A9542
:1053D000F1F7000080818823CCF79091B900987F85
:1053E00081E0983209F480E00895ECEBF0E084E885
:1053F0008083808188233CF085E08A95F1F7000066
:1054000080818823CCF78091BB00089584E8809345
:10541000BC0080E89EE3ECEBF0E002C0019729F0CD
:1054200020812223DCF780E0089581E0089584EA5A
:105430008093BC0080E89EE3ECEBF0E006C025E042
:105440002A95F1F70000019729F020812223BCF76B
:1054500080E0089581E00895CF92DF92EF92FF926D
:105460000F931F93CF93DF93F82EE62E6A018901E5
:105470000E94172A882321F094E99093BC0096C0DB
:105480008F2D880F8093BB0084E88093BC0080E858
:105490009EE3ECEBF0E003C0019709F43FC02081EC
:1054A0002223D4F740C094E99093BC007FC084EAE3
:1054B0008093BC0080E89EE3ECEBF0E002C0019733
:1054C000D1F120812223DCF73BC0019709F445C0CC
:1054D00020812223D4F746C0D60140E050E0ECEB17
:1054E000F0E024ECCBEBD0E0208380E89EE303C027
:1054F000019709F43EC030813323D4F73FC084E8DC
:105500008093BC0080E89EE3ECEBF0E003C00197E1
:1055100009F43DC020812223D4F73EC084E9809362
:10552000BC0081E043C0E092BB000E94062A8823B1
:1055300009F4BDCFB8CF84E98093BC0081E036C0C8
:105540008F2D880F81608093BB0084E88093BC001E
:1055500080E89EE3ECEBF0E0BBCF84E98093BC00F5
:1055600081E024C00150110909F0B6CF40E050E0BD
:10557000C6CF84E98093BC0081E018C088818D93F8
:105580004F5F5F4F4017510708F4AECFB8CF84E9A3
:105590008093BC0081E00AC08091BB00E601C40F8B
:1055A000D51F888384E98093BC0080E0DF91CF9190
:1055B0001F910F91FF90EF90DF90CF90089590E0B2
:1055C000FC013197E730F10508F043C0ED57FF4F7C
:1055D0000C944635E2E0F5E08CE4808385E7818336
:1055E0008EE682830895E2E0F5E08DE4808381E633
:1055F000818382E782830895E2E0F5E08DE4808391
:1056000089E6818385E682830895E2E0F5E08AE415
:10561000808385E7818385E682830895E2E0F5E073
:1056200086E5808389E6818385E682830895E2E0CA
:10563000F5E083E5808381E6818382E682830895B5
:10564000E2E0F5E084E480838FE681838DE6828367
:105650000895E2E0F5E08DE28083818382830895FE
:10566000EF92FF920F931F93CF93DF93E090E105AA
:10567000F090E20527E030E040E051E060E088E6AD
:105680000E942C2A882351F02FEF33EC89E021501F
:1056900030408040E1F700C00000F6CF09E914E097
:1056A00080E4F80111928A95E9F7C0E0D1E08881A1
:1056B0001F928F9389811F928F938A811F928F935C
:1056C0008E811F928F938D811F928F938C811F9259
:1056D0008F938CE294E09F938F931F930F930E947C
:1056E0002F37F801818990E0C097982F990F890F83
:1056F000880F9881981B90938405868590E0C097C9
:10570000982F990F890F880F9981981B9093E10525
:10571000838590E0C097982F990F890F880F9A8101
:10572000981B9093DF058B8180939B05808590E08B
:10573000C097982F990F890F880F9E81981B90937F
:105740009005838190E0C097982F990F890F880F5B
:105750009D81981B9093E604808190E0C097982FDC
:10576000990F890F880F9C81981B9093E205809177
:105770009B050E94DF2A8091E1052DB73EB7205F8F
:105780003F4F0FB6F8943EBF0FBE2DBFE81619F07D
:1057900081E08093E8058091E205F81619F081E038
:1057A0008093E70580919B05813041F48091ED0461
:1057B000882321F081E08093E9054AC080919B0510
:1057C000823041F480911305882321F081E0809399
:1057D000E9053EC080919B05833041F4809112051C
:1057E000882321F081E08093E90532C080919B05F8
:1057F000843041F480919305882321F081E08093E7
:10580000E90526C080919B05853041F480913005E3
:10581000882321F081E08093E9051AC080919B05DF
:10582000863041F48091DD04882321F081E080936B
:10583000E9050EC080919B05873041F480918E056B
:10584000882321F081E08093E90502C01092E905E8
:105850008091E905813011F51092EB058091D0051A
:10586000811114C01BC02091DF05281306C02081C0
:10587000281303C03093EB0503C08F5F883199F77D
:105880009F5F8091D005981718F008C090E031E034
:1058900080E0E92FF0E0ED52FA4FE5CF8091EB0583
:1058A000813061F49091E1058091C805981720F44A
:1058B00081E08093EA0502C01092EA05DF91CF9162
:1058C0001F910F91FF90EF9008959091C00095FD6A
:1058D00009C0E0ECF0E095E09A95F1F700009081C6
:1058E00095FFF9CF8093C60080E090E00895809105
:1058F000C00088234CF0E0ECF0E085E08A95F1F7F9
:10590000000080818823CCF78091C60090E0089544
:10591000CF92DF92EF92FF92CF93DF936B017C01E6
:10592000D42FC22F1092DC041092DB041092E405F5
:105930001092E3051092EA041092E90410920A050D
:10594000109209051092BC051092BB0560E472E448
:105950008FE090E0A70196010E94053521503109A2
:105960003093C5002093C400E0ECF0E080818D7F8F
:105970008083E1ECF0E080818061808380818860B9
:105980008083E2ECF0E0808186608083ECEEF5E0DD
:1059900087E091E09183808393838283DD2351F0BC
:1059A000E0ECF0E0808180688083E1ECF0E08081D1
:1059B00080688083CC2351F0E0ECF0E0808180644B
:1059C0008083E1ECF0E0808180648083DF91CF917F
:1059D000FF90EF90DF90CF90089580919C058334E5
:1059E00009F42BC138F4813409F46FC0823409F40E
:1059F000C8C065C1853409F439C1883509F05FC173
:105A00002FEF8DE292E2215080409040E1F700C0FC
:105A10000000A8958091DE041F928F9384E092E0AD
:105A20009F938F930E94E2362FEF8DE292E22150F6
:105A300080409040E1F700C00000A8958091EB0401
:105A40001F928F938AE092E09F938F930E94E23699
:105A50002FEF8DE292E2215080409040E1F700C0AC
:105A60000000A8958091C7051F928F938EEB91E05F
:105A70009F938F930E94E2362FEF8DE292E22150A6
:105A800080409040E1F700C00000A8951F9281E09F
:105A90008F938CE494E09F938F930E94E2362FEFD4
:105AA0008DE292E2215080409040E1F700C000007A
:105AB000A89583E00E943C058DB79EB740960FB62F
:105AC000F8949EBF0FBE8DBF089580919D058823D9
:105AD00009F4F9C08DE995E00E9492358093E904BC
