S0100000656D6D612D6164632E737265631F
S11300000C94C5000C94E2000C94E2000C94DB0107
S11300100C94E2000C94F4010C9474090C94E20026
S11300200C94E2000C94E2000C94E2000C94E200C4
S11300300C94E2000C94E2000C94E2000C94E200B4
S11300400C94E2000C94E2000C94F0080C94E2008E
S11300500C94E2000C94E2000C94E2000C94E20094
S11300600C94E2000C94E2001702200229023202EE
S11300703B0244024D0256026A0273027C0285026C
S11300808E029702A002A9026E616E00696E66007C
S113009000407A10F35A00A0724E18090010A5D43B
S11300A0E80000E87648170000E40B54020000CA98
S11300B09A3B000000E1F5050000809698000000DE
S11300C040420F000000A08601000000102700003D
S11300D00000E803000000006400000000000A00C3
S11300E0000000000100000000002C76D888DC67C6
S11300F04F0823DFC1DFAE59E1B1B796E5E3E4531E
S1130100C63AE651997696E8E6C28426EB898C9B3A
S113011062ED407C6FFCEFBC9C9F40F2BAA56FA5DA
S1130120F490055A2AF75C936B6CF9676DC11BFC5C
S1130130E0E40D47FEF520E6B500D0ED902E030077
S1130140943577050080841E080000204E0A0000C4
S113015000C80C333333330F986E12831141EF8D83
S11301602114893BE65516CFFEE6DB18D1844B38C3
S11301701BF77C1D901DA4BBE424203284725E22F4
S11301808100C9F124ECA1E53D2711241FBECFEF66
S1130190D8E0DEBFCDBF11E0A0E0B1E0EAECF1E2CF
S11301A002C005900D92A439B107D9F722E0A4E961
S11301B0B1E001C01D92A134B207E1F70E94080624
S11301C00C94E3100C9400008BB384608BBBE8E6C2
S11301D0F0E08081846080838BB381608BBB8081FD
S11301E08160808308951092EC011092EB011092CB
S11301F0E0011092DF011092160210921502109283
S11302003A021092F1011092E8011092EF0110925B
S1130210E30110921402089560E00FC02BB190E442
S113022092279BB92FEF37EE93E021503040904056
S1130230E1F700C00000A8956F5F462F50E0282F1B
S113024030E0220F331F4217530744F308958AB155
S113025080648AB98BB18F7B8BB984B1846084B993
S113026085B18B7F85B987B18F6087B988B1807F6D
S113027088B98AB181608AB98BB18E7F8BB98AB112
S113028088608AB98BB1877F8BB98AB180688AB953
S11302908BB18F778BB983E00E940C010895AC0178
S11302A020E030E00DC09091E70191110CC08FE97E
S11302B09FE00197F1F700C00000A8952F5F3F4F22
S11302C02417350780F308958FE39CE90197F1F72C
S11302D000C00000189916C08FE39FE10197F1F761
S11302E000C00000189B0BC05CC081E08093E70154
S11302F08FE39CE90197F1F700C00000A895189BD3
S1130300F4CF4FC04D9918C08FE39FE10197F1F7E7
S113031000C000004D9945C082E08093E7018093BE
S1130320F00107C08FE39CE90197F1F700C00000DA
S1130330A8954D9BF7CF35C04C9919C08FE39FE129
S11303400197F1F700C000004C992BC082E0809324
S1130350E70183E08093F00107C08FE39CE90197F4
S1130360F1F700C00000A8954C9BF7CF1AC04A993A
S113037018C08FE39FE10197F1F700C000004A998C
S113038010C082E08093E70184E08093F00107C00D
S11303908FE39CE90197F1F700C00000A8954A9B00
S11303A0F7CF9FEF20E782E0915020408040E1F7B3
S11303B000C0000008951F920F920FB60F921124EF
S11303C08F93EF93FF93F89483E08093E701E8E63B
S11303D0F0E080818E7F8083FF91EF918F910F9069
S11303E00FBE0F901F9018951F920F920FB60F9289
S11303F011248F93EF93FF93F89483E08093E701A4
S1130400E8E6F0E080818B7F8083FF91EF918F910C
S11304100F900FBE0F901F90189590E088309105B3
S113042008F04CC0FC01EC5CFF4F0C94C50E84B189
S11304308E7F84B9EBE6F0E080818160808308954B
S113044084B18D7F84B9EBE6F0E0808182608083A3
S1130450089584B18B7F84B9EBE6F0E080818460F9
S11304608083089584B1877F84B9EBE6F0E08081CE
S113047088608083089584B18F7E84B9EBE6F0E0D0
S1130480808180618083089584B18F7D84B9EBE697
S1130490F0E0808180628083089584B18F7B84B989
S11304A0EBE6F0E0808180648083089584B18F77E7
S11304B084B9EBE6F0E0808180688083089590E061
S11304C0FC017097E830F10508F04BC0E45CFF4F85
S11304D00C94C50E8AB18E7F8AB9EDE6F0E0808176
S11304E08160808308958AB18D7F8AB9EDE6F0E05A
S11304F080818260808308958AB18B7F8AB9EDE61A
S1130500F0E080818460808308958AB1877F8AB90E
S1130510EDE6F0E080818860808308958AB18F7E63
S11305208AB9EDE6F0E080818061808308958AB124
S11305308F7D8AB9EDE6F0E0808180628083089542
S11305408AB18F7B8AB9EDE6F0E080818064808394
S113055008958AB18F778AB9EDE6F0E080818068EA
S113056080830895EBE6F0E08081108280E00E94B1
S11305700D028BB381608BBBE8E6F0E08081816083
S113058080830895EDE6F0E08081108282E10E948C
S11305905F0284E10E945F0285E10E945F028BB3E7
S11305A084608BBBE8E6F0E08081846080830895FA
S11305B00E94B2020E94C202089585B18D7F85B95E
S11305C003C081E08A95F1F71C99FBCF91E040E0EC
S11305D050E0BA010DC085B18F7D85B985B18062C7
S11305E085B9440F551F661F771F1C9941609F5F93
S11305F0993188F385B1826085B965FF02C0606F67
S11306007F6FCB01BA010895CF92DF92EF92FF92F0
S113061060919B0170919C0180919D0190919E013C
S113062016161706180619060CF0B0C068352AE22B
S11306307207810591053CF022E63AE2309301010C
S11306402093000152C168302AE2720781059105A6
S11306503CF027E53AE2309301012093000145C1C3
S1130660683D29E27207810591053CF027E03AE2F2
S1130670309301012093000138C16E3A29E27207D8
S1130680810591053CF027ED39E230930101209377
S113069000012BC1643B29E27207810591053CF0FE
S11306A02DEA39E230930101209300011EC16E3E10
S11306B029E27207810591053CF023EB39E230937E
S11306C001012093000111C16F3E29E272078105E7
S11306D091053CF02DEE39E23093010120930001A5
S11306E004C1693D29E27207810591053CF02EEEB3
S11306F039E23093010120930001F7C06C3E29E2F6
S11307007207810591053CF028ED39E2309301012F
S113071020930001EAC06F342AE272078105910533
S11307203CF02BEE39E23093010120930001DDC04F
S11307306D352BE27207810591053CF02EE43AE217
S11307403093010120930001D0C06B342EE2720774
S1130750810591053CF02CE53BE2309301012093A7
S11307600001C3C0613923E37207810591053CF0A0
S11307702AE43EE23093010120930001B6C020E94F
S113078033E33093010120930001AFC064352AE2C2
S11307907207810591053CF022E63AE230930101AB
S11307A020930001A2C069302AE2720781059105F5
S11307B03CF023E53AE2309301012093000195C017
S11307C06A3D29E27207810591053CF028E03AE28E
S11307D0309301012093000188C0653B29E2720730
S11307E0810591053CF029ED39E230930101209314
S11307F000017BC0603B29E27207810591053CF052
S113080024EB39E230930101209300016EC0653B73
S113081029E27207810591053CF02FEA39E2309311
S113082001012093000161C06C382DE2720781053B
S113083091053CF024EB39E230930101209300014F
S113084054C0693C29E27207810591053CF02BE80C
S11308503DE2309301012093000147C06F3829E243
S11308607207810591053CF028EC39E230930101CF
S1130870209300013AC0623D29E272078105910587
S11308803CF02EE839E230930101209300012DC0A1
S11308906B3229E27207810591053CF021ED39E2C2
S11308A0309301012093000120C06F3F29E27207B9
S11308B0810591053CF02AE239E23093010120934D
S11308C0000113C065322CE27207810591053CF0EA
S11308D02EEF39E2309301012093000106C024E297
S11308E03CE230930101209300010E94040A20E0BD
S11308F030E040EA50E40E94B90A6B017C01609147
S113090000017091010180E090E00E94020A9B01C5
S1130910AC01C701B6010E949009609397017093DE
S113092098018093990190939A01FF90EF90DF9042
S1130930CF9008950F931F93CF93DF930E94DD020E
S113094060939B0170939C0180939D0190939E0101
S11309501092940120C0A8952FEF81EE94E02150CD
S113096080409040E1F700C000000E94DD026093E7
S11309709B0170939C0180939D0190939E018091B3
S113098094018F5F80939401E7E1F2E080E29DE2BD
S113099091838083128280919B0190919C01A0910C
S11309A09D01B0919E018F3F9F4FAF4FBF4F21F4E8
S11309B0809194018A3078F2809194018A3068F0B1
S11309C089E0E1E2F1E0A7E1B2E001900D928A95BD
S11309D0E1F787E192E00E94730880919B01909176
S11309E09C01A0919D01B0919E018F3F9F4FAF4FFD
S11309F0BF4F09F408C182E08093960196E090937A
S1130A0095011F929F931F928F938AE291E09F9387
S1130A108F9387E192E09F938F930E94631087E105
S1130A2092E00E9473080E94A9070E940403C091E7
S1130A309701D09198011091990100919A018DB775
S1130A409EB708960FB6F8949EBF0FBE8DBF20E0E8
S1130A5030E048EC52E46C2F7D2F812F902F0E94C0
S1130A60B40A8823BCF00F931F93DF93CF9382E3E0
S1130A7091E09F938F9387E192E09F938F930E94DD
S1130A8063108DB79EB708960FB6F8949EBF0FBE3D
S1130A908DBF45C020E030E040E251E46C2F7D2F53
S1130AA0812F902F0E94B40A8823BCF00F931F93C8
S1130AB0DF93CF938AE391E09F938F9387E192E052
S1130AC09F938F930E9463108DB79EB708960FB6BD
S1130AD0F8949EBF0FBE8DBF22C020E030E040E0FE
S1130AE05FE36C2F7D2F812F902F0E94B40A8823FF
S1130AF0B4F00F931F93DF93CF9382E491E09F931D
S1130B008F9387E192E09F938F930E9463108DB738
S1130B109EB708960FB6F8949EBF0FBE8DBFC091C6
S1130B209701D09198011091990100919A0120E0C8
S1130B3030E048EC52EC6C2F7D2F812F902F0E94D7
S1130B408B091816BCF00F931F93DF93CF9382E3A6
S1130B5091E09F938F9387E192E09F938F930E94FC
S1130B6063108DB79EB708960FB6F8949EBF0FBE5C
S1130B708DBF45C020E030E040E251EC6C2F7D2F6A
S1130B80812F902F0E948B091816BCF00F931F938E
S1130B90DF93CF938AE391E09F938F9387E192E071
S1130BA09F938F930E9463108DB79EB708960FB6DC
S1130BB0F8949EBF0FBE8DBF22C020E030E040E01D
S1130BC05FEB6C2F7D2F812F902F0E948B091816BD
S1130BD0B4F00F931F93DF93CF9382E491E09F933C
S1130BE08F9387E192E09F938F930E9463108DB758
S1130BF09EB708960FB6F8949EBF0FBE8DBF87E1CF
S1130C0092E00E947308DF91CF911F910F91089594
S1130C108FE19EE40197F1F700C000000FB6F8944D
S1130C20A8958091600088618093600010926000B4
S1130C300FBE0E9469099FEF29E688E19150204088
S1130C408040E1F700C000000E942701A89584B10C
S1130C50826084B984B1806284B90E94F300A8954B
S1130C600E94D802A89520E041E060E875E280E0A7
S1130C7090E00E948B088AE491E00E943310E9EB33
S1130C80F0E080818C7F808388E48093B8009FEFBC
S1130C9023ED80E3915020408040E1F700C0000044
S1130CA01092E70178948091E701882319F083304A
S1130CB089F042C0A8950E94DD0260939B01709365
S1130CC09C0180939D0190939E0184EF91E00E948A
S1130CD04F0133C0A8950E9464018091E7018130DF
S1130CE031F482E00E940C010E949A041FC080919A
S1130CF0E7018230D9F481E00E940C018091F00177
S1130D001F928F9382E591E09F938F9387E192E006
S1130D109F938F930E94631087E192E00E9473086F
S1130D200F900F900F900F900F900F901092E7017B
S1130D300E94E400789401C0A895A895B4CF84E9F2
S1130D408093BC00089584EA8093BC0080E090E026
S1130D5005C0019680382EE3920730F42091BC0040
S1130D602223BCF780E0089581E0089584E880930D
S1130D70BC0080E090E005C0019680382EE3920725
S1130D8030F42091BC002223BCF780E0089581E078
S1130D90089584E88093BC0080E090E005C001964B
S1130DA080382EE3920730F42091BC002223BCF754
S1130DB080E0089581E0089584E88093BC0080E099
S1130DC090E005C0019680382EE3920730F420911C
S1130DD0BC002223BCF780E0089581E008958823B5
S1130DE089F084EC8093BC0080E090E005C001961B
S1130DF080382EE39207B8F42091BC002223BCF77C
S1130E0080E0089584E88093BC0080E090E005C011
S1130E10019680382EE3920740F42091BC002223EF
S1130E20BCF780E0089581E0089581E0089584EAA4
S1130E308093BC0080E090E009C025E02A95F1F79A
S1130E400000019680382EE3920730F42091BC0014
S1130E5022239CF780E0089581E00895CF92DF92E9
S1130E60EF92FF920F931F93CF93D82EC62E7A0141
S1130E7089010E941707C82F882321F00E949F062A
S1130E808C2F5FC08D2D880F8093BB000E94B60607
S1130E90C82F882321F00E949F068C2F52C0C09235
S1130EA0BB000E94C906C82F882321F00E949F0618
S1130EB08C2F47C00E94A306C82F882321F00E94CC
S1130EC09F068C2F3EC08D2D90E0880F991F816066
S1130ED08093BB000E94DC06C82F8823C1F00E94C7
S1130EE09F068C2F2EC081E00E94EF06C82F882316
S1130EF021F00E949F068C2F24C0F701EC0DFD1DEC
S1130F008091BB0080838FEFC81AD80A02C0C12C1D
S1130F10D12CC8010197C816D90628F380E00E9495
S1130F20EF06C82F882321F00E949F068C2F09C04A
S1130F30F701EC0DFD1D8091BB0080830E949F068C
S1130F408C2FCF911F910F91FF90EF90DF90CF9056
S1130F5008950F931F93CF93DF9327E030E042E08F
S1130F6051E060E088E60E942E07882351F02FEFBD
S1130F7083EC99E0215080409040E1F700C00000EC
S1130F80F6CF0FE911E080E4F80111928A95E9F7B0
S1130F90C2E0D1E0588149813A812E819D818C81C2
S1130FA01F925F931F924F931F923F931F922F9311
S1130FB01F929F931F928F9387E691E09F938F9345
S1130FC01F930F930E9463102981F801868590E096
S1130FD0C097982F990F890F982F990F822F891BEB
S1130FE0809336022A81838590E0C097982F990FC9
S1130FF0890F982F990F822F891B809335028B813B
S11310008093F3012E81808590E0C097982F990FEB
S1131010890F982F990F822F891B8093F2012D81BC
S1131020838190E0C097982F990F890F982F990F7B
S1131030822F891B8093E4012C81808190E0C097EA
S1131040982F990F890F982F990F822F891B8093BE
S11310503702409136023091350220913702909147
S1131060E4018091F2011F924F931F923F931F92CC
S11310702F931F929F931F928F9387E891E09F93E2
S11310808F9387E192E09F938F930E94631087E18F
S113109092E00E9473088DB79EB74E960FB6F894EF
S11310A09EBF0FBE8DBFDF91CF911F910F91089509
S11310B004C095E09A95F1F700009091C00095FF67
S11310C0F8CF8093C60080E090E0089504C085E0E6
S11310D08A95F1F700008091C0008823C4F78091BD
S11310E0C60090E008950F931F93CF938C01C0E046
S11310F00CC0F801EC0FF11D80818A3041F0882387
S113110031F090E00E942C10CF5FC03490F3CF9167
S11311101F910F910895CF92DF92EF92FF92CF9398
S1131120DF936B017C01D42FC22F1092E201109245
S1131130E10110923902109238021092E6011092E5
S1131140E5011092EA011092E90110921302109243
S1131150120260E472E48FE090E0A70196010E941D
S1131160A30E215031093093C5002093C400E0EC54
S1131170F0E080818D7F8083E1ECF0E0808180610C
S11311808083808188608083E2ECF0E080818660E7
S11311908083EBE3F2E089E091E0918380839383A1
S11311A08283DD2351F0E0ECF0E08081806880836D
S11311B0E1ECF0E0808180688083CC2351F0E0ECA6
S11311C0F0E0808180648083E1ECF0E080818064E1
S11311D08083DF91CF91FF90EF90DF90CF900895BF
S11311E01F920F920FB60F9211242F933F934F9398
S11311F05F936F937F938F939F93AF93BF93EF937B
S1131200FF9389E091E00E9466089C0133272A300D
S11312103105F1F02B33310521F02830310551F53A
S11312200BC01092E2011092E10181E090E09093F2
S113123039028093380237C08091E1019091E20134
S1131240009789F101979093E2018093E1012BC00B
S11312508091380290913902019729F5E091E101DA
S1131260F091E201EC50FE4F10821092390210927C
S1131270380219C02091E1013091E2012E3131058B
S113128090F440913802509139024130510559F49B
S1131290A9014F5F5F4F5093E2014093E101F901CF
S11312A0EC50FE4F8083E0ECF0E080818068808326
S11312B0FF91EF91BF91AF919F918F917F916F912A
S11312C05F914F913F912F910F900FBE0F901F9000
S11312D01895F89484B7877F84BFE0E6F0E088E14E
S11312E0808389E6808308951F920F920FB60F9230
S11312F011248F93EF93FF93F894E0E6F0E080815C
S1131300806880837894FF91EF918F910F900FBE46
S11313100F901F9018950E943F0A08F481E00895E9
S11313200E94A4090C947A0A0E94730A58F00E943D
S11313306C0A40F029F45F3F29F00C94630A5111C0
S11313400C94AE0A0C94690A0E948B0A68F39923E0
S1131350B1F3552391F3951B550BBB27AA276217AD
S11313607307840738F09F5F5F4F220F331F441FBA
S1131370AA1FA9F335D00E2E3AF0E0E832D09150EE
S11313805040E695001CCAF72BD0FE2F29D0660FDB
S1131390771F881FBB1F261737074807AB07B0E81E
S11313A009F0BB0B802DBF01FF2793585F4F3AF024
S11313B09E3F510578F00C94630A0C94AE0A5F3F8B
S11313C0E4F3983ED4F3869577956795B795F795AA
S11313D09F5FC9F7880F911D9695879597F9089592
S11313E0E1E0660F771F881FBB1F6217730784072E
S11313F0BA0720F0621B730B840BBA0BEE1F88F73D
S1131400E0950895E89409C097FB3EF49095809583
S1131410709561957F4F8F4F9F4F9923A9F0F92FB6
S113142096E9BB279395F695879577956795B79534
S1131430F111F8CFFAF4BB0F11F460FF1BC06F5F1A
S11314407F4F8F4F9F4F16C0882311F096E911C02C
S1131450772321F09EE8872F762F05C0662371F04D
S113146096E8862F70E060E02AF09A95660F771F61
S1131470881FDAF7880F9695879597F90895990F3D
S11314800008550FAA0BE0E8FEEF16161706E8074A
S1131490F907C0F012161306E407F50798F0621B6B
S11314A0730B840B950B39F40A2661F0232B242B40
S11314B0252B21F408950A2609F4A140A6958FEF5F
S11314C0811D811D089597F99F6780E870E060E0B1
S11314D008959FEF80EC089500240A9416161706C9
S11314E018060906089500240A9412161306140611
S11314F005060895092E0394000C11F4882352F074
S1131500BB0F40F4BF2B11F460FF04C06F5F7F4F2B
S11315108F4F9F4F089557FD9058440F551F59F012
S11315205F3F71F04795880F97FB991F61F09F3FCC
S113153079F087950895121613061406551FF2CFF5
S11315404695F1DF08C0161617061806991FF1CF45
S113155086957105610508940895E894BB2766276C
S11315607727CB0197F908950E943F0A08F48FEF7B
S113157008950E94CC0A0C947A0A0E946C0A38F0EE
S11315800E94730A20F0952311F00C94630A0C94C2
S1131590690A11240C94AE0A0E948B0A70F3959F79
S11315A0C1F3950F50E0551F629FF001729FBB2756
S11315B0F00DB11D639FAA27F00DB11DAA1F649FF2
S11315C06627B00DA11D661F829F2227B00DA11DA5
S11315D0621F739FB00DA11D621F839FA00D611D2B
S11315E0221F749F3327A00D611D231F849F600D4C
S11315F0211D822F762F6A2F11249F5750409AF075
S1131600F1F088234AF0EE0FFF1FBB1F661F771F00
S1131610881F91505040A9F79E3F510580F00C94CB
S1131620630A0C94AE0A5F3FE4F3983ED4F38695C4
S113163077956795B795F795E7959F5FC1F7FE2B6B
S1131640880F911D9695879597F90895A0E1B0E0CC
S1131650ECE2FBE00C94CB0E7C011B016A01FC0163
S113166017821682838181FF44C39E012F5F3F4FFF
S11316703901F7019381F10193FD859193FF8191E4
S11316801F01882309F431C3853239F493FD859110
S113169093FF81911F01853239F4B70190E00E94D4
S11316A0F00F56016501E5CF10E0512C912CFFE1BC
S11316B0F915D8F08B3279F038F4803279F083322E
S11316C0A1F4F92DF0612EC08D3261F0803369F4FC
S11316D0292D21602DC0392D3260932E892D8460EF
S11316E0982E2AC0E92DE86015C097FC2DC020ED86
S11316F0280F2A3088F496FE06C03AE0139F200D86
S11317001124122F19C08AE0589E200D1124522E44
S1131710E92DE0629E2E10C08E3231F496FCE5C2B3
S1131720F92DF0649F2E08C08C3621F4292D2068F1
S1131730922E02C0883641F4F10193FD859193FF06
S113174081911F018111B3CF9BEB980F933020F44B
S1131750992D9061805E07C09BE9980F933008F043
S113176066C1992D9F7E96FF16E09F73992E85364C
S113177019F49064992E08C0863621F4392F306804
S1131780932E02C01111115097FE07C01C3350F460
S113179044244394410E27E00BC0183038F027E06E
S11317A017E005C027E09CE3492E02C0212F412CFD
S11317B0560184E0A80EB11CF6016081718182811A
S11317C09381042DA3010E94020F6C01F981FC870F
S11317D0F0FF02C0F3FF06C091FC06C092FE06C0F3
S11317E000E205C00DE203C00BE201C000E08C85FD
S11317F08C7019F001115AC29BC297FE10C04C0C98
S1131800FC85F4FF04C08A81813309F44A941414DA
S113181074F528E0241578F588E0482E2CC096FC51
S11318202AC0812F90E08C159D059CF03CEFC316D7
S11318303FEFD30674F0892D8068982E0AC0E2E049
S1131840F0E0EC0FFD1FE10FF11D8081803319F4EE
S113185011501111F4CF97FE0EC044244394410E4D
S1131860812F90E0C816D9062CF41C1904C0442416
S1131870439401C010E097FE06C01C141D0434F408
S1131880C601019605C085E090E002C081E090E0C9
S113189001110196112331F0212F30E02F5F3F4FCA
S11318A0820F931F252D30E08217930714F4581AE2
S11318B001C0512C892D897049F4552039F0B701A4
S11318C080E290E00E94F00F5A94F7CF002329F0B1
S11318D0B701802F90E00E94F00F93FC09C05520BF
S11318E039F0B70180E390E00E94F00F5A94F7CFEB
S11318F097FE4CC04601D7FE02C0812C912CC60134
S113190088199909F301E80FF91FFE87ED879601FD
S113191024193109388B2F87012F10E01195019577
S113192011093FEF8316930629F4B7018EE290E084
S11319300E94F00FC814D9044CF08F85988988153B
S1131940990524F4ED85FE85818101C080E3F1E0F1
S11319508F1A91082D853E852F5F3F4F3E872D8737
S1131960801691062CF0B70190E00E94F00FD9CFB9
S1131970C814D90441F49A81963320F4953319F4A8
S11319803C8534FF81E3B70190E04EC08A81813306
S113199019F09C859F7E9C87B70190E00E94F00F10
S11319A0111105C094FC18C085E690E017C0B7017A
S11319B08EE290E00E94F00F1E5F82E001E0080FCB
S11319C0F301E80FF11D8081B70190E00E94F00F50
S11319D0802F0113F3CFE6CF85E490E0B7010E9496
S11319E0F00FD7FC06C0C114D10441F4EC85E4FF28
S11319F005C0D194C194D1088DE201C08BE2B70136
S1131A0090E00E94F00F80E32AE0C216D1042CF08B
S1131A108F5FFAE0CF1AD108F7CFB70190E00E94A8
S1131A20F00FB701C601C0960E94F00F54C183366F
S1131A3031F0833779F0833509F056C020C0560160
S1131A4032E0A30EB11CF6018081898301E010E02D
S1131A50630112C05601F2E0AF0EB11CF601C08062
S1131A60D18096FE03C0612F70E002C06FEF7FEF5C
S1131A70C6010E94E50F8C01F92DFF7714C05601B1
S1131A8022E0A20EB11CF601C080D18096FE03C0F4
S1131A90612F70E002C06FEF7FEFC6010E94DA0F82
S1131AA08C01F92DF0689F2EF3FD1AC0852D90E06E
S1131AB008171907A8F4B70180E290E00E94F00F1C
S1131AC05A94F4CFF60197FC859197FE81916F01AA
S1131AD0B70190E00E94F00F51105A94015011097F
S1131AE00115110579F7F7C0843611F0893661F5CF
S1131AF0560197FE09C024E0A20EB11CF6016081D4
S1131B007181828193810AC0F2E0AF0EB11CF601AB
S1131B1060817181072E000C880B990BF92DFF76DB
S1131B209F2E97FF09C090958095709561957F4F82
S1131B308F4F9F4FF0689F2E2AE030E0A3010E9450
S1131B408510C82EC6183FC0092D853721F40F7E95
S1131B502AE030E01DC0097F8F3691F018F48835F3
S1131B6059F0C3C0803719F0883711F0BEC0006146
S1131B7004FF09C0046007C094FE08C0066006C0E4
S1131B8028E030E005C020E130E002C020E132E08E
S1131B90560107FF09C084E0A80EB11CF60160815C
S1131BA071818281938108C0F2E0AF0EB11CF6010D
S1131BB06081718180E090E0A3010E948510C82EAD
S1131BC0C6180F77902E96FE0BC0092D0E7FC116F6
S1131BD050F494FE0AC092FC08C0092D0E7E05C084
S1131BE0DC2C092D03C0DC2C01C0D12E04FF0DC058
S1131BF0FE01EC0DF11D8081803311F4097E09C0D2
S1131C0002FF06C0D394D39404C0802F867809F0D1
S1131C10D39403FD11C000FF06C01C2DD51480F41D
S1131C20150D1D190DC0D51458F4B70180E290E0CC
S1131C300E94F00FD394F7CFD51410F45D1801C0AF
S1131C40512C04FF10C0B70180E390E00E94F00F14
S1131C5002FF17C001FD03C088E790E002C088E5D9
S1131C6090E0B7010CC0802F867859F001FF02C0C4
S1131C708BE201C080E207FD8DE2B70190E00E9493
S1131C80F00FC11638F4B70180E390E00E94F00F22
S1131C901150F7CFCA94F301EC0DF11D8081B70107
S1131CA090E00E94F00FC110F5CF15C0F4E0F515D7
S1131CB060F584E0581A93FE1FC0011127C02C85DB
S1131CC023FF2AC008E810E0392D3071932EF80163
S1131CD08491811124C0552009F4E4CCB70180E239
S1131CE090E00E94F00F5A94F6CFF7018681978115
S1131CF026C08FEF9FEF23C0B70180E290E00E94DF
S1131D00F00F5A945110F8CFD8CF512CB701802F2F
S1131D1090E00E94F00FD3CF0CE810E0D5CF9110E3
S1131D208052B70190E00E94F00F0F5F1F4FCFCF9A
S1131D3023E0251510F483E0BDCF512CC0CF60966D
S1131D40E2E10C94E70EA1E21A2EAA1BBB1BFD01D3
S1131D500DC0AA1FBB1FEE1FFF1FA217B307E40786
S1131D60F50720F0A21BB30BE40BF50B661F771FDE
S1131D70881F991F1A9469F76095709580959095BE
S1131D809B01AC01BD01CF010895EE0FFF1F05902B
S1131D90F491E02D09942F923F924F925F926F92AB
S1131DA07F928F929F92AF92BF92CF92DF92EF92E7
S1131DB0FF920F931F93CF93DF93CDB7DEB7CA1B68
S1131DC0DB0B0FB6F894DEBF0FBECDBF09942A8893
S1131DD0398848885F846E847D848C849B84AA843B
S1131DE0B984C884DF80EE80FD800C811B81AA81C8
S1131DF0B981CE0FD11D0FB6F894DEBF0FBECDBF93
S1131E00ED010895283008F027E03327DA01990F0F
S1131E10311D87FD916000966105710539F43260CA
S1131E202E5F3D9330E32A95E1F708959F3F30F00C
S1131E3080387105610509F03C5F3C5F3D9391304A
S1131E4008F08068911DDF93CF931F930F93FF9247
S1131E50EF92192F987F9695E92F96959695E90F0D
S1131E60FF27E651FF4F99273327EE24FF24A701CC
S1131E70E70105900894079428F4360FE71EF81E2E
S1131E80491F511D660F771F881F991F0694A1F7DC
S1131E900590079428F4E70EF81E491F561FC11D2C
S1131EA0770F881F991F661F0694A1F70590079462
S1131EB028F4F80E491F561FC71FD11D880F991FFC
S1131EC0661F771F0694A1F70590079420F4490F25
S1131ED0561FC71FD81F990F661F771F881F0694A8
S1131EE0A9F784911095177041F0D695C795579529
S1131EF04795F794E7941A95C1F7E0E9F0E0689400
S1131F001590159135916591959105907FE27395A2
S1131F10E118F10A430B560BC90BD009C0F7E10CC9
S1131F20F11E431F561FC91FD01D7EF4703311F4D8
S1131F308A95E6CFE894015030F0080F0AF40027A0
S1131F40021708F4202F2395022F7A3328F079E31F
S1131F507D932A95E9F710C07D932A9589F6069416
S1131F6097956795379517951794E118F10A430BE0
S1131F70560BC90BD00998F023957E9173957A334B
S1131F8008F070E37C932013B8F77E9170617D9321
S1131F9030F0839571E37D9370E32A95E1F7112482
S1131FA0EF90FF900F911F91CF91DF91992787FDBB
S1131FB090950895FC010590615070400110D8F788
S1131FC0809590958E0F9F1F0895FC01615070407D
S1131FD001900110D8F7809590958E0F9F1F08955A
S1131FE00F931F93CF93DF93FB01238121FD03C044
S1131FF08FEF9FEF2CC022FF16C0468157812481AA
S113200035814217530744F4A081B1819D012F5FAC
S11320103F4F318320838C93268137812F5F3F4F3D
S11320203783268314C08B01EC01FB010084F18506
S1132030E02D0995892BE1F6D80116968D919C9196
S11320401797019617969C938E931697CE01DF915E
S1132050CF911F910F91089560913D0270913E02BE
S11320600E94F00F08950F931F93CF93DF93E09195
S11320703D02F0913E02238121FF1BC08C01D0E080
S1132080C0E0F80181918F0160913D0270913E02A0
S1132090DB011896ED91FC911997882331F009958D
S11320A0892B79F3DFEFCFEFECCF8AE00995892B09
S11320B019F08FEF9FEF02C08D2F9C2FDF91CF91EE
S11320C01F910F910895AEE0B0E0E9E6F0E10C94C1
S11320D0D90E0D891E8986E08C831A8309838FEFBC
S11320E09FE79E838D83AE01475E5F4F6F89788D36
S11320F0CE0101960E94260BEF81F885E00FF11FB7
S113210010822E96E4E00C94F50EFA01AA272830EA
S113211051F1203181F1E8946F936E7F6E5F7F4FB0
S11321208F4F9F4FAF4FB1E03ED0B4E03CD0670F2C
S1132130781F891F9A1FA11D680F791F8A1F911D7F
S1132140A11D6A0F711D811D911DA11D20D009F4CF
S113215068943F912AE0269F11243019305D319311
S1132160DEF6CF010895462F4770405D4193B3E0FA
S11321700FD0C9F7F6CF462F4F70405D4A3318F0A1
S1132180495D31FD4052419302D0A9F7EACFB4E052
S1132190A6959795879577956795BA95C9F700970A
S11321A06105710508959B01AC010A2E06945795AB
S11321B0479537952795BA95C9F7620F731F841F02
S10D21C0951FA01D0895F894FFCFA9
S11321CA010010101306021124000000030000008D
S11321DA0058086608000041443A20256C640D0A38
S11321EA0074696D65206F7574003A25642C256442
S11321FA2C002C252E31660D0A002C252E32660D54
S113220A0A002C252E33660D0A0055415254204FDC
S113221A4B003A5025640A002564206572726F7275
S113222A2025640D0A0A00253032782F25303278A9
S113223A2F32302530327820253032783A25303220
S113224A783A25303278002564256425642C25647F
S107225A3A256400B9
S9030000FC
